:020000040000FA
:100000000C9461000C94DF020C94B8020C947E00F6
:100010000C947E000C947E000C947E000C947E0068
:100020000C947E000C947E000C947E000C947E0058
:100030000C947E000C947E000C947E000C947E0048
:100040000C946E020C947E000C947E000C947E0046
:100050000C947E000C947E000C947E000C947E0028
:100060000C947E000C947E00000000002400270009
:100070002A0000000000250028002B0000000000DE
:1000800023002600290004040404040404040202DA
:100090000202020203030303030301020408102007
:1000A0004080010204081020010204081020000012
:1000B0000008000201000003040700000000000027
:1000C000000011241FBECFEFD8E0DEBFCDBF11E08E
:1000D000A0E0B1E0E8E3F9E002C005900D92A032A3
:1000E000B107D9F721E0A0E2B1E001C01D92AD3225
:1000F000B207E1F70E9406030C949A040C940000E6
:100100008230C8F4E82FF0E0EE0FFF1FE050FF4F01
:1001100071836083813041F0809169008C7F8160C0
:1001200080936900E89A089580916900837F8460D4
:1001300080936900E99A0895833081F028F4813032
:1001400099F08230A9F008958730A9F08830C9F07D
:100150008430B1F4809180008F7D03C08091800055
:100160008F7780938000089584B58F7784BD08953C
:1001700084B58F7DFBCF8091B0008F778093B000E6
:1001800008958091B0008F7DF9CFCF93DF93282F12
:1001900030E0F901E255FF4F8491F901E656FF4F37
:1001A000D491F901EA57FF4FC491CC23A1F08111FA
:1001B0000E949C00EC2FF0E0EE0FFF1FE458FF4F71
:1001C000A591B491EC91ED2381E090E009F480E0F9
:1001D000DF91CF91089580E090E0FACF1F93CF9305
:1001E000DF93282F30E0F901E255FF4F8491F901A8
:1001F000E656FF4FD491F901EA57FF4FC491CC2343
:10020000A9F0162F81110E949C00EC2FF0E0EE0F58
:10021000FF1FEE58FF4FA591B4918FB7F894EC9162
:10022000111108C0D095DE23DC938FBFDF91CF91F1
:100230001F910895DE2BF8CFCF93DF9390E0FC0160
:10024000E656FF4F24918A579F4FFC0184918823E3
:10025000C9F090E0880F991FFC01E859FF4FA59164
:10026000B491FC01EE58FF4FC591D49161110DC0BE
:100270009FB7F8948C91209582238C9388812823B2
:1002800028839FBFDF91CF910895623051F49FB7CB
:10029000F8943C91822F809583238C93E8812E2BB8
:1002A000EFCF8FB7F894EC912E2B2C938FBFEACF22
:1002B0008E3008F08E508770806480937C0080912F
:1002C0007A00806480937A0080917A0086FDFCCF6A
:1002D000809178009091790008950895CF92DF92EF
:1002E000EF92FF920F931F93CF93DF938C01EC015A
:1002F000CC0FDD1FFE01E45EFE4F80810E94C50031
:10030000892B09F051C00E94DF032FEF33E040E05A
:1003100050E00E9437046B017C01FE01E85EFE4F55
:1003200080810E945801092E000CAA0BBB0BF8011A
:10033000EE5DFE4F21E08C159D05AE05BF050CF06E
:1003400020E02083F801E05EFE4F8C159D05AE0590
:10035000BF0524F4808191E089278083008111E02A
:100360001027FE01EC5EFE4F612F80810E94EE009F
:10037000FE01E05FFE4F602F80810E94EE00FE01D3
:10038000E45FFE4F602F80810E94EE00C85FDE4F69
:10039000612F8881DF91CF911F910F91FF90EF9096
:1003A000DF90CF900C94EE00DF91CF911F910F91D1
:1003B000FF90EF90DF90CF9008958F929F92AF9231
:1003C000BF92CF92DF92EF92FF920F931F93CF9342
:1003D000DF938C01EC01CC0FDD1FFE01E45EFE4FCC
:1003E00080810E94C500FE01EC5EFE4FC080FE01D0
:1003F000E05FFE4FD080FE01E45FFE4FE080FE0133
:10040000E85FFE4FF0800197E1F460E08C2D0E94E0
:10041000EE0060E08D2D0E94EE0060E08E2D0E94C7
:10042000EE0060E08F2DDF91CF911F910F91FF9033
:10043000EF90DF90CF90BF90AF909F908F900C94F3
:10044000EE000E94DF0321EF33E040E050E00E9425
:1004500037044B015C01C85EDE4F88810E94580161
:10046000092E000CAA0BBB0BC1E088159905AA0543
:10047000BB050CF0C0E0F801EE5DFE4FC083D1E09B
:1004800088159905AA05BB050CF4D0E06D2F8C2DBD
:100490000E94EE006C2F8D2D0E94EE006C2F8E2D91
:1004A0000E94EE006D2FBECF8EE00E94C500019726
:1004B00021F490E080E00C94DD0190E080E00C9469
:1004C0006E0181E10E94C500019721F481E090E076
:1004D0000C94DD0181E090E00C946E011F920F926C
:1004E0000FB60F9211242F933F938F939F93AF9347
:1004F000BF938091290190912A01A0912B01B09185
:100500002C013091280123E0230F2D3758F5019657
:10051000A11DB11D209328018093290190932A01E8
:10052000A0932B01B0932C0180912401909125017F
:10053000A0912601B09127010196A11DB11D8093C4
:10054000240190932501A0932601B0932701BF9128
:10055000AF919F918F913F912F910F900FBE0F9070
:100560001F90189526E8230F0296A11DB11DD2CF2A
:100570001F920F920FB60F9211242F933F934F9318
:100580005F936F937F938F939F93AF93BF93EF93FB
:10059000FF93E0910201F09103010995FF91EF9122
:1005A000BF91AF919F918F917F916F915F914F918B
:1005B0003F912F910F900FBE0F901F9018951F9293
:1005C0000F920FB60F9211242F933F934F935F9387
:1005D0006F937F938F939F93AF93BF93EF93FF930B
:1005E000E0910001F09101010995FF91EF91BF9118
:1005F000AF919F918F917F916F915F914F913F91BB
:100600002F910F900FBE0F901F901895789484B57E
:10061000826084BD84B5816084BD85B5826085BDFE
:1006200085B5816085BD80916E00816080936E008C
:10063000109281008091810082608093810080917E
:10064000810081608093810080918000816080932F
:1006500080008091B10084608093B1008091B000EF
:1006600081608093B00080917A00846080937A00EA
:1006700080917A00826080937A0080917A00816014
:1006800080937A0080917A00806880937A0010923B
:10069000C10062E083E00E941C0160E08FE00E94E4
:1006A0001C0162E08EE00E941C0161E08BE00E9470
:1006B0001C0161E088E00E941C0161E08AE00E9468
:1006C0001C0161E089E00E941C0162E082E00E945E
:1006D0001C0160E080E10E941C0162E081E10E9457
:1006E0001C0161E08CE00E941C0161E086E00E9438
:1006F0001C0161E084E00E941C0161E085E00E9431
:100700001C0164E572E081E00E94800061E672E015
:1007100080E00E948000C0E0D0E000002097E9F374
:100720000E940000FACF8F929F92AF92BF92CF9219
:10073000DF92EF92FF92CF93DF93EC016881798192
:100740008A819B81611571058105910521F464E21F
:1007500079ED8BE597E02DE133EF41E050E00E9429
:10076000370449015A019B01AC01A7EAB1E40E9498
:1007700056046B017C01ACEEB4EFA50194010E941C
:100780006404C60ED71EE81EF91EF7FE06C081E0FF
:10079000C81AD108E10880E8F80AC882D982EA823A
:1007A000FB82C701B6019F77DF91CF91FF90EF9059
:1007B000DF90CF90BF90AF909F908F9008958F92D1
:1007C0009F92AF92BF92CF92DF92EF92FF92609191
:1007D0000401709105018091060190910701611556
:1007E00071058105910521F464E279ED8BE597E0CF
:1007F0002DE133EF41E050E00E94370449015A01F6
:100800009B01AC01A7EAB1E40E9456046B017C0194
:10081000ACEEB4EFA50194010E946404C60ED71E8D
:10082000E81EF91EF7FE06C081E0C81AD108E108EB
:1008300080E8F80AC0920401D0920501E092060116
:10084000F0920701C701B6019F77FF90EF90DF900C
:10085000CF90BF90AF909F908F90089560930401C8
:100860007093050180930601909307010895052E6A
:1008700097FB1EF400940E944E0457FD07D00E947F
:10088000690407FC03D04EF40C944E045095409537
:10089000309521953F4F4F4F5F4F0895909580952C
:1008A000709561957F4F8F4F9F4F08950E948B04E5
:1008B000A59F900DB49F900DA49F800D911D1124B4
:1008C0000895B7FF0C9456040E945604821B930BA4
:1008D0000895A1E21A2EAA1BBB1BFD010DC0AA1F81
:1008E000BB1FEE1FFF1FA217B307E407F50720F099
:1008F000A21BB30BE40BF50B661F771F881F991F14
:100900001A9469F760957095809590959B01AC015C
:10091000BD01CF010895A29FB001B39FC001A39F65
:10092000700D811D1124911DB29F700D811D112428
:10093000911D0895F894FFCF6D016D010100000035
:10094000090005000A000400080006000B000C0066
:080950000F001000030002007B
:107800000C94343C0C94513C0C94513C0C94513CE1
:107810000C94513C0C94513C0C94513C0C94513CB4
:107820000C94513C0C94513C0C94513C0C94513CA4
:107830000C94513C0C94513C0C94513C0C94513C94
:107840000C94513C0C94513C0C94513C0C94513C84
:107850000C94513C0C94513C0C94513C0C94513C74
:107860000C94513C0C94513C11241FBECFEFD8E036
:10787000DEBFCDBF11E0A0E0B1E0ECE9FFE702C060
:1078800005900D92A230B107D9F712E0A2E0B1E065
:1078900001C01D92AD30B107E1F70E942D3D0C945F
:1078A000CC3F0C94003C982F959595959595959582
:1078B000905D8F708A307CF0282F295A8091C0000B
:1078C00085FFFCCF9093C6008091C00085FFFCCF60
:1078D0002093C6000895282F205DF0CF982F809127
:1078E000C00085FFFCCF9093C6000895EF92FF92F1
:1078F0000F931F93EE24FF2487018091C00087FD22
:1079000017C00894E11CF11C011D111D81E4E8164B
:1079100082E4F8068FE0080780E0180770F3E09132
:107920000401F091050109958091C00087FFE9CF1E
:107930008091C6001F910F91FF90EF9008950E94D3
:10794000763C982F8091C00085FFFCCF9093C600B5
:1079500091362CF490330CF09053892F089597555D
:10796000892F08951F930E949F3C182F0E949F3CCF
:107970001295107F810F1F9108951F93182F882350
:1079800021F00E94763C1150E1F71F9108951F935A
:10799000182F0E94763C803249F0809103018F5F5E
:1079A000809303018530C1F01F9108958091C0003C
:1079B00085FFFCCF84E18093C6008091C00085FFE5
:1079C000FCCF1093C6008091C00085FFFCCF80E102
:1079D0008093C6001F910895E0910401F091050184
:1079E00009951F9108950E94763C803241F0809164
:1079F00003018F5F80930301853081F008958091AA
:107A0000C00085FFFCCF84E18093C6008091C00058
:107A100085FFFCCF80E18093C6000895E0910401CA
:107A2000F09105010995089540E951E08823A1F0FE
:107A30002D9A28EE33E0FA013197F1F721503040CA
:107A4000D1F72D9828EE33E0FA013197F1F7215064
:107A50003040D1F7815061F708953F924F925F9285
:107A60006F927F928F929F92AF92BF92CF92DF924E
:107A7000EF92FF920F931F93CF93DF93000080E16B
:107A80008093C4001092C50088E18093C10086E015
:107A90008093C2005098589A259A81E00E94143D24
:107AA00024E1F22E9EE1E92E85E9D82E0FE0C02ECA
:107AB00010E1B12EAA24A394B1E49B2EA6E58A2E50
:107AC000F2E57F2EE0E26E2E79E4572E63E5462E36
:107AD00050E5352E0E94763C8033B1F18133B9F107
:107AE000803409F46FC0813409F476C0823409F41B
:107AF00085C0853409F488C0803531F1823521F1A3
:107B0000813511F1853509F485C0863509F48DC0BC
:107B1000843609F496C0843709F403C1853709F423
:107B200072C1863709F466C0809103018F5F80932C
:107B30000301853079F6E0910401F0910501099582
:107B40000E94763C803351F60E94F33CC3CF0E94E2
:107B5000763C803249F78091C00085FFFCCFF092DF
:107B6000C6008091C00085FFFCCF9092C600809136
:107B7000C00085FFFCCF8092C6008091C00085FFC9
:107B8000FCCF7092C6008091C00085FFFCCF609250
:107B9000C6008091C00085FFFCCF5092C600809146
:107BA000C00085FFFCCF4092C6008091C00085FFD9
:107BB000FCCF3092C6008091C00085FFFCCFB09210
:107BC000C60088CF0E94763C863808F4BDCF0E945C
:107BD000763C0E94F33C7ECF0E94763C803809F4CC
:107BE0009CC0813809F40BC1823809F43CC1883942
:107BF00009F48FC080E00E94C73C6CCF84E10E94F2
:107C0000BD3C0E94F33C66CF85E00E94BD3C0E94D3
:107C1000F33C60CF0E94763C809306010E94763C44
:107C2000809307010E94F33C55CF0E94763C80333D
:107C300009F41DC183E00E94BD3C80E00E94C73C66
:107C400049CF0E94763C809309020E94763C809343
:107C5000080280910C028E7F80930C020E94763C79
:107C6000853409F415C18091080290910902892B8D
:107C700089F000E010E00E94763CF801E85FFE4FDA
:107C800080830F5F1F4F80910802909109020817AF
:107C9000190788F30E94763C803209F045CF809125
:107CA0000C0280FF01C16091060170910701660F0F
:107CB000771F7093070160930601A0910802B091AD
:107CC00009021097C9F0E8E0F1E09B01AD014E0F09
:107CD0005F1FF999FECF32BD21BD819180BDFA9A17
:107CE000F99A2F5F3F4FE417F50799F76A0F7B1F4B
:107CF00070930701609306018091C00085FFFCCF5F
:107D0000F092C6008091C00085FFFCCFB092C60003
:107D1000E1CE83E00E94C73CDDCE82E00E94C73CFA
:107D2000D9CE0E94763C809309020E94763C8093D3
:107D300008028091060190910701880F991F909386
:107D40000701809306010E94763C853409F4A6C0A1
:107D500080910C028E7F80930C020E94763C8032D0
:107D600009F0B8CE8091C00085FFFCCFF092C6002C
:107D7000609108027091090261157105B9F140E046
:107D800050E080910C02A82FA170B82FB27011C0E2
:107D9000BB2309F45CC0E0910601F0910701319624
:107DA000F0930701E09306014F5F5F4F46175707B7
:107DB000E8F4AA2369F3F999FECF209106013091E6
:107DC000070132BD21BDF89A90B58091C00085FFB2
:107DD000FCCF9093C6002F5F3F4F30930701209355
:107DE00006014F5F5F4F4617570718F38091C00099
:107DF00085FDE5CE8091C00085FFF8CFE0CE81E023
:107E00000E94C73C67CE0E94763C803209F08CCE3F
:107E10008091C00085FFFCCFF092C6008091C00029
:107E200085FFFCCFE092C6008091C00085FFFCCFAB
:107E3000D092C6008091C00085FFFCCFC092C600E2
:107E40008091C00085FFFCCFB092C60043CEE09188
:107E50000601F091070194918091C00085FFFCCF4D
:107E60009093C6009CCF80E10E94C73C33CE0E9415
:107E7000763C0E94763C182F0E94763C112309F430
:107E800083C0113009F484C08FE00E94C73C22CE29
:107E900080910C02816080930C02E5CE80910C02EF
:107EA000816080930C0259CF809107018823880F4D
:107EB000880B8A2180930B02809106019091070123
:107EC000880F991F90930701809306018091080203
:107ED00080FF09C080910802909109020196909359
:107EE000090280930802F894F999FECF1127E091D6
:107EF0000601F0910701C8E0D1E08091080290915D
:107F00000902103091F40091570001700130D9F34B
:107F100003E000935700E89500915700017001308D
:107F2000D9F301E100935700E89509901990009169
:107F3000570001700130D9F301E000935700E89534
:107F40001395103498F011270091570001700130FB
:107F5000D9F305E000935700E895009157000170B0
:107F60000130D9F301E100935700E895329602976A
:107F700009F0C7CF103011F00296E5CF112480919F
:107F8000C00085FFB9CEBCCE8EE10E94C73CA2CD19
:0E7F900085E90E94C73C9ECDF894FFCF80008B
:00000001FF
