:020000040800F2
:1040000030050020B5CB0008994E0008894E000805
:104010008D4E0008914E0008954E000800000000EB
:104020000000000000000000000000009D4E00089D
:10403000A14E000800000000A54E0008A94E00088F
:10404000FDCB0008FDCB0008FDCB0008FDCB000830
:10405000FDCB0008FDCB0008FDCB0008FDCB000820
:10406000FDCB0008FDCB0008FDCB0008FDCB000810
:10407000FDCB0008FDCB0008FDCB0008FDCB000800
:10408000FDCB0008FDCB0008FDCB0008FDCB0008F0
:10409000FDCB0008FDCB0008FDCB0008FDCB0008E0
:1040A000FDCB0008B54E0008FDCB0008FDCB000895
:1040B000FDCB0008FDCB0008FDCB0008FDCB0008C0
:1040C000FDCB0008FDCB0008FDCB0008FDCB0008B0
:1040D000FDCB0008FDCB0008FDCB0008FDCB0008A0
:1040E000FDCB0008FDCB0008FDCB00080000000060
:1040F00000000000000000000000000000000000C0
:1041000000000000000000005FF808F12DE9F00F4A
:10411000856844688AB0A54204920093129A80F0A0
:104120001C81641BB4FBF2F40594531E846908934C
:10413000002A00F00C81DDF814A0019111440691D1
:104140000599AA444FEACA05C9000368CDF824A01E
:1041500002950791B0F90E10019D01EB41018E030C
:1041600015F8012B029901958E4238BF0E46002AA0
:1041700000F0A980013A4FEA4229C9F57F42FF3297
:104180004FEA1A4C0CFB02319942C0F0C080057B0B
:10419000002D40F0D480B14234BF002501250395A5
:1041A0009E4200F2B980B0F91250B9F5803F4FEA53
:1041B000A505A5F50065ADB22FB28582A7EB9147A5
:1041C000C0F0AE80C7EB873704EBE73400214FF037
:1041D00001085344009A9A45036094BF00250125C5
:1041E0005AB1002D00F08E804FEADA12B3FBF2F3E1
:1041F000009A0133137001320092039A12B9B8F198
:10420000000F67D1037BA3B90268B2423ED3971B6C
:10421000B0F814B0B7FBFCF7CBEB9242B7F5803F98
:1042200012B221D3C2EB823204EBE23401221944F0
:1042300002735DB3B0F912500368C5F38F05A5F59D
:104240008F42B3FBFCF37F3AA5F50065B3F5803FE1
:1042500012B2858244D3C2EB823204EBE2340023F3
:10426000002519440573C8E7C7F57F43FF3303FBF7
:1042700003F307FB07F79B0C5B42BF0C03FB02F346
:1042800007FB02F2DB1304EBE234CFE7B8F1000FD7
:1042900020D103689E4288BFB0F91420049DA4F584
:1042A000005498BF9A0C640025F8024B54180299E8
:1042B000079A049511440291019D06998D4241D0BF
:1042C000059A924446E791460392904611464FEA7A
:1042D0001A4C7EE70CFB09F3002203600273D9E756
:1042E000C3F57F45FF3505FB05F503FB03F3AF0C75
:1042F0007F429D0C07FB02F305FB02F2DB1304EB8C
:10430000E234ADE7009B1D700133009375E7012592
:104310009E4203957FF647AF4FF00108002158E712
:1043200002FB02F109FB09F2890C4942920C01FBE4
:1043300007F102FB07F7C91304EBE73447E7002551
:1043400003952DE7059B0899099A01FB03258461D4
:1043500085600AB0BDE8F00F70472B1BB3FBF2F38A
:10436000DB430593E1E600BF2DE9F00F846886B0DA
:104370000494049D44689946A54201920E9B80F0E6
:10438000E380641BB4FBF3F40294B0F90E2084695B
:10439000B2F5FA4FC4BF4FF4FA42C2815A1E0592D9
:1043A000002B00F09A800268CB18DDF810C0039350
:1043B0008A461346B0F90E50029F1AF8012BC5F534
:1043C0000045BC442D04002A00F08E80013A4FEADB
:1043D0004228C8F57F41FF314FEA1C4606FB0132F7
:1043E0009A42C0F09E80077B002F40F0AA80954241
:1043F0008CBF002701270097954200F29780B8F5FF
:10440000803FC0F09680A4F57F543F3C00210127F7
:1044100063449C45036094BF4FF0000B4FF0010BC9
:10442000B9F1000F0BD0BBF1000F75D04FEADC12D1
:10443000B3FBF2F3013389F8003009F10109009A66
:104440000AB9002F57D1037B73B90268954229D866
:10445000521BB2FBF6F2B2F5803F18D304F57F543D
:104460003F340122C91A0273BBF1000F1AD003684E
:10447000B3FBF6F3B3F5803F43D3A4F57F543F3C41
:1044800000224FF0000B114480F80CB0D7E7C2F5C2
:104490007F43FF3303FB03F302FB02F29B0C04EBAD
:1044A0009244DEE73FBB0368A4F5804247F6FF7401
:1044B0009D4288BF0024039F019D520025F8022BD6
:1044C000BA4501950C447FF475AF049D029B029F91
:1044D00005992B4401FB073304938461049C846099
:1044E00006B0BDE8F00F704790460092174611469F
:1044F0004FEA1C468CE706FB08F3002203600273B8
:10450000D2E7C3F57F42FF3202FB02F203FB03F363
:10451000920CA4EB9344B4E789F800B009F10109C7
:104520008DE70127954200977FF669AF01270021AB
:104530006EE701FB01F108FB08F2890CA4EB924441
:1045400065E70027009757E7049F3A1BB2FBF3F299
:10455000D243029219E700BF2DE9F00F846886B0BC
:104560000494049D44689146A5420E9A80F09F8071
:10457000641BB4FBF2FB541E86690594002A55D0D7
:104580008A180768049C0292CDF804B0019D11F8C6
:10459000012B2C44002A62D0013A5202C2F57F4C12
:1045A0000CF1FF0C250C05FB0C75BD422CBF4FF028
:1045B000000A4FF0010AB2F5803F4FEA554555D346
:1045C000C5EB8535A6EBE5364FF0000C4FF0010842
:1045D0002744BC42076094BF0025012543B1002D4C
:1045E00041D04FEAD41BB7FBFBF701371F700133F3
:1045F000BAF1000F21D1B8F1000F1ED0270C07FB34
:1046000002F7002207600273029AA6F58046760040
:10461000914229F8026B0CEB5746B7D1DDF804B094
:10462000049B059C5B4404FB0B330493049D86614F
:10463000856006B0BDE8F00F70475DB10568270CD6
:10464000B5FBF7F5B5F5803F25D3A6F57F560027D6
:104650003F3EBC44B8F1000FD0D10768D4E7924682
:1046600090469446B4E71D700133C1E70CFB0CFC87
:1046700002FB02F84FEA9C4CCCF1000C0CFB05FC51
:104680004FEA984808FB05F54FEAEC3CCCF1000CEA
:10469000A6EBE5369AE7C5F57F47FF3707FB07F737
:1046A00005FB05F5BF0CA6EB9546BC44D2E7049D7F
:1046B0002C1BB4FBF2F46FEA040B5CE72DE9F00F5E
:1046C000846886B00494049D44689946A54201928A
:1046D0000E9B80F0EC80641BB4FBF3F40294B0F901
:1046E0000E208469B2F5806FBCBF4FF48062C28136
:1046F0005A1E0592002B00F09F800268CB18DDF84F
:1047000010C003938A461346B0F90E50029F1AF860
:10471000012BBC442D04002A00F09580013A4FEA99
:104720004228C8F57F42FF324FEA1C4606FB0231A1
:104730009942C0F0B680077B002F40F0B5808D42D3
:104740008CBF0027012700974F1B890C01EB974175
:10475000B8F5803FC5F10007C1EB9747C0F09280E4
:10476000C7EB873704EBE7340021012763449C45FE
:10477000036094BF4FF0000B4FF0010BB9F1000F35
:104780000BD0BBF1000F78D04FEADC12B3FBF2F391
:10479000013389F8003009F10109009A0AB9002FA4
:1047A00058D1037B73B9026895422BD8521BB2FBD8
:1047B000F6F2B2F5803F18D3A4F5FF541F3C012256
:1047C000C91A0273BBF1000F1CD00368B3FBF6F3E8
:1047D000B3F5803F44D3A4F5FF541F3C00224FF0B3
:1047E000000B891A80F80CB0D7E7C2F57F43FF337E
:1047F00003FB03F302FB02F29B0C5B425B10A4EB96
:10480000D244DCE737BB0368A4F58042039F5C1BFE
:10481000019D520001EB934125F8022BBA45019509
:1048200001EB94447FF470AF049D029B029F0599B5
:104830002B4401FB073304938461049C846006B01D
:10484000BDE8F00F704790460092174611464FEAB8
:104850001C468BE706FB08F3002203600273D3E7D4
:10486000C3F57F42FF3202FB02F203FB03F3920C1B
:1048700052425210A4EBD344B1E789F800B009F1D9
:1048800001098AE702FB02F108FB08F2890C4942A0
:10489000920C01FB07F102FB07F7C91304EBE734A5
:1048A00063E7012700974FE7002700974CE7049F35
:1048B0003A1BB2FBF3F2D243029210E784462DE991
:1048C000F00F8068DCF80470089CB84234D23F1ABC
:1048D000B7FBF4F7DCF8003004F1FF392CB301EB3F
:1048E0000408044611F8015B3C44002D18BF002366
:1048F00066089D19AB191E0C2D0C46F3C03B45F301
:10490000C03A8BEA46068AEA4505A6F50046A5F5B3
:10491000004546F34E0645F34E053544414522F821
:10492000025BDFD1384409FB0700BDE8F00FCCF88B
:104930000030CCF808007047C71BB7FBF4F7FF4303
:10494000C8E700BF2DE9F00F8046806882B098E884
:104950002800A8420A9C38D22D1AB5FBF4F9651E2E
:10496000019554B301EB040ADFF86CC0044612E071
:104970000CEB0705C3F30F2602372D883CF907B06F
:104980002FB2C7EB0B0706FB07F6514505EB264593
:1049900022F8025B0DD04C44234411F801BB1F0EDA
:1049A00000260D4D7F00BBF1000FE1D002273346FA
:1049B000E3E7019A484402FB0900C8F80800C8F878
:1049C000003002B0BDE8F00F7047C5EB0009B9FB3D
:1049D000F4F96FEA0909C2E7208C01082DE9F00F0C
:1049E00088B005908068059B0690069D18CBA5426F
:1049F000109880F09280641BB4FBF0F40194059F42
:104A000047F6FF75FC89B7F9109026B2471ECDF81E
:104A10000890C9EB0606B5FBF0F50797002873D0A0
:104A200005FB06F50818DFF800C104900698039509
:104A30002C460CF1020811F8015BDDF80490002D02
:104A400048444FEA500518BF0023DDF808902B4476
:104A50001E0C09EBE437C7EB071746F3C03989EAA8
:104A6000460647F31017A6F5004607F500673FB264
:104A700036B207FB06F6F6132B44A6F500461D0CCE
:104A8000B6B24FEA262945F3C03B8BEA450B3CF80A
:104A9000195038F919A0ABF5004B0FFA85F90FFA48
:104AA0008BFBC9EB0A090BFB07F7F6B206FB09F60D
:104AB000FF1305EB2625A7F50047BFB245F34E05CA
:104AC00015804FEA27293CF8196038F919A00FFA28
:104AD00086F9FFB2C9EB0A0907FB09F706EB27279E
:104AE00047F34E073D44049F039EB942344422F8E5
:104AF000025BA0D10698019A0199079D024405FB2B
:104B00000122059E0692F489059F06983C82B860B2
:104B10003B6008B0BDE8F00F7047069E341BB4FB45
:104B2000F0F4E44301946AE72C9201082DE9F00FB8
:104B300088B005908068059B0690069C5868894659
:104B400084421B68109980F0AB80001BB0FBF1F031
:104B50000190DDF814B0BBF91040BBF80E000294D0
:104B6000029E05B247F6FF7401F1FF3BAD1BB4FB9B
:104B7000F1F4CDF81CB0002900F0898004FB05F4A5
:104B80004944DFF834C14A4FDDF81880049103949A
:104B9000214619F8010B019C0028A0444FEA580453
:104BA00018BF00232344180E424E3CF8105036F92B
:104BB00010A02EB2C3F30F20C6EB0A0600FB06F6C8
:104BC000029805EB264500EBE13BCBEB0B1B4BF3CF
:104BD000101000F500602DB200B200FB05F6F613D0
:104BE000A6F50046B6B2DFF8D4B04FEA262A37F869
:104BF0001A503BF91AA0F6B2CDF800A0DDF800B0CB
:104C00000FFA85FACAEB0B0A06FB0AF605EB262516
:104C1000234445F34E0515801E0EDFF898B03CF88E
:104C200016403BF916A026B2C6EB0A06C3F30F2ABC
:104C30000AFB06F604EB264636B206FB00F0C0136C
:104C4000A0F5004080B20612DFF870B037F81640C9
:104C50003BF916A026B2C0B2C6EB0A0600FB06F06E
:104C600004EB202040F34E00049C05440398A1452A
:104C7000014422F8025B8CD1069E019A0798DDF868
:104C800004B0324400FB0B22059C0692E089059E8D
:104C9000308206983360B06008B0BDE8F00F70470E
:104CA000069E301AB0FBF1F0C043019051E700BFFF
:104CB00038980108228C0108208C01083A980108D4
:104CC000B0F90E302DE9F00FC3F5FF43B0F91640EF
:104CD0007F3304EB63034FEA831B9B1282B00E2BDE
:104CE0001FFA8BFB0A9C51D82B4D03F1030618BF0A
:104CF000043355F826C00CBFD5F8448055F82380FE
:104D0000002C3FD00C1990E828000194009529E070
:104D1000AF1CC3F30F243CF805603CF907A038F83A
:104D200005500FFA86F938F90770C9EB0A090FFA2E
:104D300085FA04FB09F9CAEB070704FB07F706EB42
:104D400029491FFA89F905EB27450FFA89F62DB293
:104D5000AD1B0BFB05F509EB2549019D22F8029BD4
:104D6000A9420FD0009C00262344036011F8017B68
:104D70001D0E34466D00002FCAD00660022735464E
:104D80003346C8E702B0BDE8F00F7047024BD3F8D6
:104D900044C0E046B4E700BFE402002010B443F68C
:104DA000FF739942A8BF1946A1F58043002213F56D
:104DB000C06302F10102FAD418110849441C51F8E9
:104DC000244051F8201003F00F03601A03FB00F396
:104DD00001EB2310D0405DF8044B7047908301082D
:104DE0002DE9F04F067F274D90F81DE005EBC60733
:104DF000B645D7F8048083B00446894693469A4660
:104E000055F836702BD000254FF4F05E01214CF29E
:104E1000010241604677056005730582C5814582C0
:104E200085618282A0F816E07146FFF7B7FF6060E7
:104E300018F0010F0FD04FEA680854F8082004EB6F
:104E40000800D5590C9B494600935A465346A8473B
:104E500003B0BDE8F08F04EB68003D46F2E7B0F91F
:104E600016502946FFF79AFFB5F5804F606003DDC5
:104E70004FF48042E282DBE7002DBCBF0022E282D9
:104E8000D6E700BF00000020FEE700BFFEE700BF3E
:104E9000FEE700BFFEE700BF704700BF704700BFDE
:104EA000704700BF704700BF014806F02FBD00BF2C
:104EB000A4480020554B2DE9F0011A8AD20778D575
:104EC0004FF6FE72524D1A8252492A680B685248B8
:104ED00002EB420203EBC20230F812C04F4FCCF596
:104EE000004C4F4ACCF30B1C4FF480544CF4405C04
:104EF0004C4E14614C485461A7F80CC0B468027859
:104F000084F01004C4F30014002A55D00026B046E3
:104F1000464A2D68177805EB450503EBC505DFF814
:104F200028C1013348EA0707172B04700CF8056005
:104F30001770374805D904680023013404F00304CE
:104F400004600B603A4B9968012953D039D3022988
:104F500035D1384800248589596805F00F052D02A0
:104F60001D809C60848121BB9B683149012B20D12D
:104F70003148CE898D890C8A498AA0F8B060A0F8A2
:104F8000AE50A0F8B240A0F8B410002F3BD02B498F
:104F9000497911B18B4001339BB2294900200B8024
:104FA000107033B1013B9BB20B8013B9254B01222A
:104FB0001A70BDE8F00170472646A046A8E7596878
:104FC000D1E71C4C5868A1891E88154D0E43411C21
:104FD000B6B203EB400801F0030101204FF0060CCC
:104FE0001E80A8F80C605960286198606861A4F878
:104FF0000CC0B8E759680F488C01A4B20225868915
:105000009D608481AFE70E490B88CAE7002C014000
:105010009C4A0020D84E0020340500200038004073
:10502000000C01400008014088490020CC4A0020C3
:10503000A84A002000300140A4480020EC4E002087
:1050400030050020A44A0020F40500202DE9F04F8F
:10505000012283B040F2ED21A34807F04DF9A348A7
:1050600006F020FBA248002506F036FCA14B29469D
:10507000A1481D6006F04AFFA048A14C07F09AF82D
:10508000A04806F0ABFF01264FF4F0534CF20107A5
:10509000A4F86E30A4F88E30A4F8AE30294604F19E
:1050A000D800C422A56584F86450A4F86850A4F818
:1050B0006650A4F86A502567A56784F88450A4F860
:1050C0008850A4F88650A4F88A50C4F89050C4F8C8
:1050D000985084F8A450A4F8A850A4F8A650A4F8B6
:1050E000AA50C4F8B050E665E667C4F89C60A4F81E
:1050F0006C70A4F88C70A4F8AC7007F0F7FD40F663
:10510000FD734FF484514FF48042A4F8EE11A4F8DB
:105110000E12A4F82E12C4F8A031C4F8B431C4F8A9
:10512000C831C4F8DC31A4F8F021A4F81022764884
:10513000C4F89C51C4F8A451C4F8A851C4F8B051A3
:10514000C4F8B851C4F8BC51C4F8C451C4F8CC5127
:10515000C4F8D051C4F8D851C4F8E051C4F8E451AF
:10516000C4F80052C4F8045284F8EC61C4F8F45155
:1051700084F80862C4F82052C4F8245284F80C62FF
:10518000C4F8145284F82862C4F84052C4F8445257
:10519000A4F8302284F82C62C4F8345284F84862AF
:1051A000C4F8B85084F8D46084F8D3606565A580ED
:1051B000E58006F08BF9554807F012F85449554838
:1051C00001F1C004A1F13003002223F8022B99421F
:1051D000FAD1A0F11803002203F8012B8342FAD17F
:1051E0003031A14200F11800ECD14B4B4B4C1B6805
:1051F0004B48C3F3C22B0BF1010B03F00F094FEA2D
:10520000CB1B02254FEAC9290BFB0BFB00222560B3
:105210004449454CC3F30418C9F57F4CC3F34123FB
:10522000033302604FEA88264FF6FF750CF1FF0C3E
:105230003E480A600193114606F5005A1346E28182
:105240002282A260A581CDF800C09AB202FB02F2D0
:10525000A2F5004424B209FB04F4A3F18002009DEE
:10526000120205FB0242121402FB02F682EAE27409
:10527000A4EBE27496FBFBF6103604FB08F4DFF8AF
:10528000B8C0CDB2B6B280364FF480073CF91550A5
:105290000AFB02F297FBF6F605FB06F5641104F52E
:1052A0000054C6F57F4692FBF4F212B2FF3606FBBD
:1052B00002560133019A3614B3F5807F114440F849
:1052C000046FC2D11A491B4BD1F8FC430648002297
:1052D000C1F800449A60DA605A601A6003B0BDE811
:1052E000F04F07F04FB800BFA04A0020EC4E00205E
:1052F000A4480020504F0020A84A002088490020E0
:1053000054060020E44E00208C490020DC4E002092
:10531000640500200C060020ECF7FF1F9C4A0020CB
:10532000D84E00208449002060490020CC4A00204B
:10533000D04A0020BC4A0020208C01082DE9F04F03
:10534000C04DC14BEA7BA97BC04EC900D20053F8C7
:10535000222053F8213071697260336056F8213091
:10536000326A83B01A449342326214D94B1C728B56
:10537000DBB2022B06EB430118BFC2EB0242888965
:1053800014BF120C00220021736156F82330B2833F
:10539000328370833162002B00F00F82326AAC4B93
:1053A000110E981C33F8113030F81110C2F30F228F
:1053B000C91A02FB01F1728B03EB11439BB202FB92
:1053C00003F2348BC3F57F43FF3303FB0423DFF881
:1053D000BC921C0C99F89530B483022B00F0F58137
:1053E000AB79984A002B40F0B3819A4F44F24C219C
:1053F00013787A5CDFF898829A421CBF012287F802
:10540000D42044F24C22BB54B8F80C30B8F80E103B
:10541000B5F824C0B5F826E0EA78687C0CFB03FCFC
:105420000EFB01FE02FB04F204FB00F0B5F9203094
:10543000B5F9221003EB2C3301EB2E3103EB5213A1
:1054400001EB501147F6FF729342A8BF13469142F9
:10545000B8BF0A46E97923EAE37322EAE27211F05F
:10546000FB0FADF804303B807A80764BB8F8102003
:1054700000F09781012900F0CE81032900F0C88156
:10548000A2F2666202EBC202511001F5F051EA7C11
:1054900071483C32D20106F07DF86A4BAA7993F844
:1054A00007E05AB9BEF1030FB8F81210DB6904D057
:1054B000CB1AC3EB031343F3D302104467492B7990
:1054C0000A883BB113B2C31A3F337E2B02D9644B17
:1054D00001221A70DFF8BC81DFF8BCC1D8F80020C7
:1054E000604B0CFB02F213449AB2C8F800300880FB
:1054F00095F80B805C4B002A40F05C8193E8060035
:105500000CFB01F1DFF85CA18A444FEA1A4101FB70
:10551000012256494FEA126C31F91CC0C3F800A0B1
:105520004FEA0C215A6099608C46D968504AC1EB09
:105530000C0C01EB2C4101FB08F892F800C000EBC9
:10554000E840D960BCF1000F40F0328153885168C7
:10555000A3F50043C1EB032301EB232353601B148A
:10556000297C184401FB04F3AA7A00EBD31383F3DC
:105570000E038AB13F4A9B009BB2181202F1020C43
:1055800032F810203CF8100003F0FC03801A03FBF3
:1055900000F302EB23239BB22A7ADFF800C1BEF1AD
:1055A000040FA2F10202344802EB420214BF4FF092
:1055B000000EE6460EEB422E027873443B81254FE7
:1055C000B2B199F8B780B6F81CC0B6F80CE0002369
:1055D000012208F1010889F8B780A6F818C0A6F8DA
:1055E0001AE087F8D42089F8BA2073613362037017
:1055F000224A234E10681368224FAA7C03EB430310
:1056000000EB400007EB031706EBC0060D4B2AB971
:10561000DA781AB95B7C002B00F0F180304600216B
:10562000182207F063FB31460A483A46182305F072
:1056300035FF95F80C906A7809FB09F9124BA878A8
:105640002EE000BFEC4E002038E00008604900204A
:1056500074F20008540600208C490020D44E00202B
:10566000CC4A00205FF36E3CBC4A0020208C01082D
:10567000DC4E002064A90108A44A002084490020CF
:10568000F40500203405002028D80008A448002094
:10569000A84A00202C0300200D66190000EEFFFF31
:1056A000614933F812B0C9EB0939604B95F812A083
:1056B0001FFA89F931F81060C9F57F484FF6FF717C
:1056C000188800239A4514BFA2468A46584D3A4688
:1056D00008F1FF08194600E03846B3FBF6F406FB74
:1056E0001434C0EB0A0700EB2717BFB2013314B91B
:1056F00011880BEA010109B200FB01F10914A1F5BF
:105700000044A4B2201200F1010C55F82CC055F849
:105710002000E4B2C0EB0C0C04FB0CF400EB2420E2
:1057200000B209FB00F008FB0100182B4FEA2040F3
:1057300022F8020B89B2CFD13E4A13683B4A0133AB
:1057400017803C4A03F00303136003B0BDE8F08FF9
:10575000DFF8EC80D369B8F912003749C01AB1F903
:10576000002080B203B2971CBB424CDD08802A782F
:1057700003EB430302EBE313304F2D2B44F24C2297
:10578000BA5CDABF23EAE373DBB22E239A421CBF72
:10579000012287F8D42044F24C2289F8BB30BB5454
:1057A00032E699695B6901FB02F203EB22316EE696
:1057B0000023D5E6D3F808C0B7E6DFF88890B48BAD
:1057C00099F89530022B7FF40BAE99F89830162B90
:1057D0007FF406AE95F86230002B3FF401AE174F10
:1057E00044F24C23FB5C2F2B02D0012387F8D430EA
:1057F00044F24C232F22DFF84880FA5404E60029B3
:105800007FF40CAF0FE7971EBB42AFDB1346AEE74A
:105810004FF40A513BE69969A2F2666201FB02F17C
:10582000091301F5F05132E638D80008CE4A0020BD
:10583000D04A002084490020E84E00205406002071
:10584000A84A0020A44800202DE9F843FFF7FEFBFA
:10585000DFF86090DFF86080114F124D124C99F81C
:10586000096098F80030DFF850E0B34210D006EB42
:10587000860207EBC20303F1080137F932205B68A7
:105880000A488EF8006005F033FE01E0FFF756FD90
:105890002A6823689A42F9D1054806F0B1FADEE792
:1058A00080D00008844900209C4A00208C490020B8
:1058B000A4480020EC4E0020480000202DE9F00F05
:1058C000B0F90CA044684FEAAA1ACAF5007A4FEA68
:1058D0009409934682B01FFA8AFAC0F804900268CD
:1058E000458C90F820C023B3CB1800934FEA89036E
:1058F000019311F8014B194B002C18BF00221446DC
:1059000003F110080026AA454C441AD90135ADB25E
:1059100053F8047F434507FB0C66F4D1019B361214
:105920001A44009BA6F5DC46303E99422BF8026BE8
:10593000DFD180F820C04584026002B0BDE8F00FDE
:105940007047C57B4FEA146C8CEA450C2CEA050CB9
:105950000CEB55055FFA85FC0125D9E728DC00082A
:105960002DE9F00FB0F90E80017F4FEAA81808F179
:10597000C80886B01FFA88F8878981B37C4E7D4DB0
:1059800034687D4905FB04F421444FEA114C0CF1C5
:10599000010C0CF0070C794C4FF0A0090CEB4C0AF1
:1059A00000253160A0F8449004EB4A0405774FEAE3
:1059B000083901462678013509FB06F60E62E678BD
:1059C000032D8E6304F1010401F10401F2D1BCF155
:1059D000060F40F6FF7138BF0021A0F84610B0F85E
:1059E0004460002E00F08E80B0F84610013EA0F812
:1059F000446003915D1E0495002B7FD090E88800E1
:105A00005B4EFB180593DFF880C1336805992C467F
:105A1000019226E0D1444D444FEA11682DB2C8F1FD
:105A2000FF0808FB05F8A8F500481FFA88F84FEAB8
:105A3000282676005FFA88F806F10209504A013CF0
:105A4000955B32F909902EB2C6EB090608FB06F603
:105A500005EB2625019E621C26F8025B394401965F
:105A600043D0444D026A05FB03F9C56A466A02EB5E
:105A70000508026B456B1644826A3F4B15444B4444
:105A800002954FEA1869856BDDF80CA0C0F82C80F0
:105A9000029A09F0F0094FEA23480AFB081849EA7C
:105AA00005094FEA166AC56B3CF819904FEA126B6C
:105AB0000663066C0BF0F00B0AF0F00A4AEA050ADE
:105AC0004BEA0606DFF8C4B03CF81AA0B8454263BA
:105AD0003BF816509ED20025C56205634563A84673
:105AE0004FF481794FF48076A8E7DDF810A0DDF857
:105AF00014B01F4907FB0AB707600B6006B0BDE88A
:105B0000F00F704747F303314D1C1E4C01EB410170
:105B1000C7F30B0705EB450504EB4505C7F5805CAE
:105B200004EB41049A4601462B7894F8009007FB59
:105B300003F30CFB093308FB03F30B6295F80390A6
:105B4000E37807FB09F90CFB039901364FEA293387
:105B5000032E8B6305F1010504F1010401F1040139
:105B6000E2D100215346A0F84610039142E700BF5E
:105B70002C0300200D6619005FF36E3C50DD000819
:105B80001886010864DA0008D4B7010868EA00083A
:105B90002DE9F00FB0F90E50B0F90CC0B5F5804FFB
:105BA00005FB05FA4FEAA515A4BFC5F5FF7501353C
:105BB00005FB05F5AD129EB005FB05F50CEB4C0C95
:105BC00044680593B0F8D030CCF3581C64004FEA19
:105BD0006C0B88464FEAEA3A02930168002304926C
:105BE00003940BF5C06B04354FEACA1A1A4605AC8C
:105BF0001E02CCEB0607CBEB060606FB06F607FB00
:105C000007F796FBF5F997FBF5F7803709F180095F
:105C10004FF480069AFBF9F996FBF7F601334E44F0
:105C20000C2B324444F8046FE2D1039C6FF0004324
:105C3000260C93FBF2F23546002412AF0BE0002352
:105C40000DF1180C4CF8043003191B6A35443B5114
:105C50000434302C0CD0B5F5804FF0D80DF1180C71
:105C60005CF8043003FB02F31B144CF80430EBE740
:105C7000059B002B6CD0049CDFF8DCC09B4698F899
:105C8000003004F1040A0CF102090490002B48D101
:105C900098F8013008F10208002B44D1039E3144EA
:105CA00000231D460A460591100E3CF8104039F9B4
:105CB000106020B2361AC2F30F2000FB06F606A9C8
:105CC000F85804EB2644C95824B200FB04F40E1A19
:105CD00000EB2620F850059E0433302B324405EBB0
:105CE000E435E1D11B4B31469D421EDBB5F5004F3B
:105CF000B8BFABB202DB47F6FF752B460298BBF18B
:105D0000020B02B215444FEA65052AF8045C2AF832
:105D1000023C0AF1040A0CD0029398F80030002BE0
:105D2000B6D008F101080021BAE71D4648F2010388
:105D3000E4E70498A0F8D03001600023F958C218B5
:105D40000433302B1162F9D11EB0BDE8F00F70475B
:105D5000029BEFE70180FFFF208C01082DE9F00F87
:105D60004468017F8AB0640006900493446000296F
:105D70003DD0837E069D0133DBB2022B84BF0698A3
:105D80000023837603EB8303DE00203600233544B3
:105D9000B4F5000FAB60234640F32981012100E0F8
:105DA00001465B10B3F5000F01F10100F8DC4FF480
:105DB00080630B41A960581E069FDDF818C0B7F933
:105DC0000E10670001EB4101491001F5005101FB84
:105DD00003F14CF80630090CEC612F620023E860F7
:105DE0006961DCF804006B608CF81C3000E0204630
:105DF0000699069D8B7EB1F90C1003EB830305EB2E
:105E0000C3031D6C854294BFDD63D863B1F5804F39
:105E1000A2BFCB10A3EB431303F500394FEA943331
:105E2000C3F580539BB218B2B8BF4FF6FF79FF2875
:105E3000D8BF4FF48073B1F5804F80F2D5801BB28C
:105E4000C1F5804101FB03F3C3F38F330893069937
:105E5000049BB1F844100791002B00F0CD80069D03
:105E6000674FDDF818C005F5CC5504321A350CF52E
:105E7000CA7C396802920395CDF824C0CA46002036
:105E8000069D099A0090686B002838D05D4C5E4BE7
:105E900004FB01F1013868630B4432F91040191416
:105EA00001EB41010C44009FA4102744194622F83D
:105EB00010400097039802F60202824205F128057D
:105EC000E1D1524B009A9A427FDBB2F5004FC0F20B
:105ED000958047F6FF730093079C009D22B2029FB6
:105EE00004982A44521027F8042C27F8023C023860
:105EF00007F10407029704906DD00793BFE7AB6BDF
:105F0000AC6AE86B04F1160C00EB030929FA0CFCEF
:105F1000D5F82C800CF1020C6B6A0CEA080C9C453D
:105F20000194C5F8389054D0CDF81490A946089D36
:105F30000C463448344900FB04F42144581C8CB20C
:105F400000EA0800A24532F8107002EB430632F86E
:105F500013B011D30FFA8BFB3FB21BEB070743BF04
:105F60007F427F107F427F102DB12CB2C4F50044D8
:105F700004FB07F7FF13378023B91488D9F82030C2
:105F800022F81340844502D00C460346D1E74D4623
:105F9000DDF81490019F686229FA07F94FEA9950D9
:105FA00032F8103002EB4000B0F9024018B2C9F3E9
:105FB0008F19201A09FB00F9DDF800C003EB294313
:105FC0001BB29C44CDF800C074E7009348F2010373
:105FD00082E76046DEE70A4A1160069CA4F8443076
:105FE0000AB0BDE8F00F7047002008902FE740F29C
:105FF000FF304FF48063DFE60B46EEE793B26BE7CA
:106000002C0300200D6619005FF36E3C0180FFFF3A
:106010002DE9F00FC689B0F9125034B205F14007EE
:1060200086B0BC428C46039204DCA5F14002944247
:1060300080F2A880468204EB8404C4F350325249B3
:1060400002EBC2025200B0F90C608C5C760004FBDB
:1060500006F60A4402EB16425178947845684B4A9A
:1060600001EBC11104EBC4146D08114414440295F2
:10607000002B00F08380B6B2634402680496059357
:106080000190654666E006F10108C2F357030298E5
:1060900011F808B014F808900244DDF80480500E9E
:1060A00011F806C0471CA65DC8F8002011F807A02B
:1060B00014F807800F5CCCEB0B0B205CC6EB0909D6
:1060C000C7EB0A0A03FB0BFB03FB09F9C2F35703F7
:1060D000C0EB080803FB0AFA08FB03F84FEA0C2C94
:1060E0003F02ACF5004CA7F50047360200020CEB6E
:1060F0002B4BA0F5004007EB2A4AA6F500461FFAF5
:106100008BFB1FFA8AFA00EB284806EB2949049812
:106110000FFA8BFC0FFA8AF70FFA89F90FFA88F851
:10612000CCEB0909C7EB080800FB08F800FB09F9EC
:106130000AEB284A0BEB294BDDF80C804BF34E0B96
:106140004AF34E0A0598DA4428F802AB8542CDF8A6
:106150000C8013D00298019B02441A6015F8017B51
:1061600000200346560E002F8DD0DDF80480064631
:10617000C8F8000002464FF0010888E706B0BDE805
:10618000F00F70472C4656E7C4DA00089002010869
:106190002DE9F00FB0F90EC0B0F90C50CCEB0C1C8F
:1061A000C5EB05154FEA2C1C2D1196B0CCF3C42677
:1061B000C5F3C4274FEA4C1C6D010C9001361FFA41
:1061C0008CFCADB2964C974809911092CDF810C056
:1061D00006EB07110E9500224D1EADB2665D12AFA3
:1061E00006EBC616655C0644BE503E46164405EBFB
:1061F000C515083205441031102A89B27560EBD1FB
:10620000DDF83080D8F8042052080F92002B00F0FF
:106210000381DDF83890099EC9F57F49D8F8000060
:106220001299139A149C159D1E4409F1FF090390BD
:1062300005910692079408951196CDF83490D4E014
:10624000560E751CC2F35703059CDDF81880A45D3B
:1062500018F80680059F0F99DDF81C900A941144E8
:106260007C5DCDF82C80089FDDF8188003914A0EE4
:1062700017F806C019F8061019F805B018F80580C7
:10628000039E7D5D0C9FC1EB0B0B3E600A9F03FBE1
:106290000BFBE41B03FB04F4501C19F800A0CDF821
:1062A0000880019419F80280039C0902DDF820900F
:1062B000A1F50041C8EB0A0A01EB2B4BC4F35701CF
:1062C00019F80260CCEB050519F800900AFB01FAF9
:1062D00003FB05F5C6EB09094FEA0828A8F50048B5
:1062E00009FB01F94FEA0C2C0B9C08EB2A4AACF590
:1062F000004CDDF808800CEB254C3602059DC4EB04
:106300000807A6F5004615F8028006EB294903FBAD
:1063100007F7069E2B5CB25C305CC8EB030301FB05
:1063200003F3801A00FB01F04FEA08280A99A8F548
:1063300000480E0208EB2348019B1FFA8AFAA6F5D3
:1063400000461FFA8BFB250206EB2346049C0FFA3E
:106350008AF30FFA89F9C3EB0909A5F500450FFA8D
:106360008BF30FFA8CFC120204FB09F9B6B205EBB1
:106370002747A2F50042C3EB0C0C35B21FFA88F890
:1063800004FB0CFC02EB20403FB20FFA88F47F1BA9
:1063900000B2049D001B05FB00F00AEB294ADDF862
:1063A000389005FB07F70BEB2C4B0FFA8AFA0FFA24
:1063B0008BFB09FB0AFA09FB0BFB08EB20480D9845
:1063C00006EB27460FFA88F836B200FB08AA00FB56
:1063D00006BB10994FEA6A4A0AEB6B4B21F802BBE5
:1063E000099C119D1091AC4216D0039A0F9FDDF8C5
:1063F0003080DDF824903A44C8F8002019F8013BB9
:10640000CDF82490002B3FF41BAF0C9800221346CC
:1064100002601646012517E716B0BDE8F00F704779
:10642000449D0108900201082DE9F00F92B00D90F3
:106430000D9D4069B5F90C4000EB400000EB4404B1
:10644000B5F910009A4EA410DDF83490C4F38528F5
:10645000401216F808C0375C0F94964DB9F90E40FB
:10646000D9F80400B0440CEBCC1C07EBC7174FF471
:10647000004603910F994008AC442F44B6FBF3F655
:10648000B4F5005F0892C9F81410079098F801104D
:10649000CDF808C009974FEAC4020B96D9F800005E
:1064A00080F2E180002B00F0D28092B20592C2F51A
:1064B0007F420692069D039C72001C4492B2FF35F7
:1064C00000260A920C94069504963B466246B0E07C
:1064D000410801F07E444FEA5069240E029421F0F5
:1064E0007F4109F10108DDF81CA082444FEA5A609F
:1064F000CDF804A0441C1F5C165C019813F804A09E
:1065000012F804B0450813F8094012F8090013F80E
:10651000089012F8088025F07F4CC7EB0A0AC6EBFA
:106520000B0B0CFB0AFAC4EB0909C0EB08080BFBC8
:106530000CFB01FB09F901FB08F83F02A7F5004736
:10654000360224020002A6F5004607EB2A4AA4F50B
:106550000044A0F5004005F07E45049F1FFA8AFA2A
:106560002D0E06EB2B4B04EB294900EB2848DDF8F8
:106570002CC00298595D0FFA8AF61FFA89F90FFAB2
:106580008BFB1C5CBC44555DC6EB0B0B0FFA88F80B
:10659000165C0FFA89F01FFA8CFCC0EB08080902A0
:1065A00008FB07F80BFB0CFBA1F500412D022402B0
:1065B00089B2A5F50045A4F50044360208B2A4B29C
:1065C000A6F500462DB22D1A30B226B20AEB2B4B9F
:1065D0000CFB05F5861B09EB2849DDF8148007FB49
:1065E00006F60FFA8BFB08FB0BFB0FFA89F908FB89
:1065F00009F901EB2541DDF818A009B204EB2644A6
:106600000AFB01BB24B20A980AFB04940744BFB2F8
:106610004FEA2B4B089D0BEB24440497039E0C9FE1
:1066200064100198079925F8024BBE42084408956A
:106630000DD0039F17F8011B039700293FF448AFC3
:1066400000218946029108464FF001084BE70F9F51
:10665000DDF834807B10A8F81030C8F8000012B0C4
:10666000BDE8F00F70470F9F01EBC111BE01294437
:10667000B6B2B4F5804F0191069680F2E680002B09
:10668000E5D0DDF82C9092B2DDF80CA0C2F57F4881
:106690000C924FEA49029A4408F1FF0892B2002195
:1066A000CDF840A0CDF8288011920591C0E000BF40
:1066B0006CD8000890020108541CC0F35703079DD2
:1066C000029E0544680E00F1010916F800A016F8B4
:1066D00009800199CAEB08080F5C11F809B0C5F3ED
:1066E000570108FB01F80495CDF80080029DDDF804
:1066F0000480C7EB0B0B15F804C00BFB01FB18F86B
:106700000250DDF82480B65C18F8000018F80990F3
:10671000DDF80480CDF838B018F804B0C6EB0C0CE6
:10672000DDF8248003FB0CFCC5EB0B0B18F80220F2
:1067300018F8044003FB0BFBDDF80080C0EB0909EF
:106740004FEA0A2A01FB09F9AAF5004A0E993F020D
:1067500036020AEB284AA41AA7F50047A6F5004618
:106760002D021FFA8AFA07EB214706EB2C46A5F506
:10677000004503FB04F40FFA8AF8069BB6B205EB5A
:106780002B4B3FB200020FFA86FCC8EB0707A0F5BF
:1067900000400FFA8BFB120203FB07F700EB2940C6
:1067A000A2F50042DDF814900B99CCEB0B0B80B2F4
:1067B00003FB0BFB02EB244405B2A4B249448AB2AA
:1067C000C5EB080823B20C990AEB274A02FB08F82C
:1067D000C3EB0C030FFA8AFA06EB2B4609FB03F313
:1067E00001FB0AFA36B201FB06F60A9A00EB2848CA
:1067F0000FFA88F804EB234302FB08AA1BB202FB42
:1068000003634FEA2A4A089E0AEB2343119C5B105C
:106810000498079D4A4626F8023B039FDDF8408016
:10682000224492B247452844089605923FF40FAFA0
:10683000039B420E13F8011B0393002300293FF42E
:106840003BAF01241A46184639E7B4F5C04F80F231
:10685000DF80002B3FF4FBAE92B2DDF80CA0C2F556
:106860007F499A4409F1FF090592CDF828A0CDF897
:106870002490DDF808B0B8E025F07F454FEA136CAE
:1068800002F10109079CDDF804A00444600E411CDC
:10689000029466081BF801701BF8004006F07E4861
:1068A0003F1B26F07F4606FB07F71AF801101AF87F
:1068B00000000B910C970B9F4FEA18681BF8021011
:1068C0001BF808301AF802201AF80880C0EB070AF3
:1068D0000AFB06FACDF82CA0DDF804A01BF809602D
:1068E0001AF80990019FCDF810901BF80CA017F82A
:1068F0000C90761A049F1B0205FB06F6A3F50043D5
:106900004FEA08289BB2BF1AA8F500484FEA0A2AA6
:1069100005FB07F50FFA88F80C9F0FFA83FCAAF520
:10692000004A4FEA0929240209021FFA8AFACCEB2D
:10693000080CA9F50049DDF81880A4F50044A1F57C
:10694000004104EB274401EB26410FFA8AF7069E2B
:106950000FFA89F908FB0CFCC7EB0909DDF82C805C
:106960000002120206FB09F9A0F50040A2F5004260
:10697000A4B200EB284089B202EB25420EB2DDF84A
:10698000188027B200B212B2921BC01B03EB2C4C32
:1069900008FB02F20AEB294908FB00F0DDF814A01D
:1069A0000FFA8CFC0AFB0CFC0FFA89F90AFB09F9B7
:1069B00004EB204001EB2241099A00B202FB00CC1B
:1069C00009B202FB01994FEA2C4C089C0CEB2949B7
:1069D0004FEA69090298079B24F8029B039D0A9ECF
:1069E0001844B54208943FF432AE039B450813F8AF
:1069F000011B4FF0000C0393420E05F07E4300296B
:106A00003FF43AAF65464FF001096246604639E708
:106A1000002B3FF41CAE1FFA82FADDF80CB0CAF569
:106A20007F499B4409F1FF09029B019A0699CDF821
:106A300024B0CDF804A0CDF8089081E04FEA1C6C9A
:106A4000340EDDF81C8012F804B040444FEA5008C0
:106A500008F078452D0E5E5D575D36021D5DA6F58A
:106A600000463F02B6B208F07E482D02A7F5004767
:106A70004FEA186834B2A5F500454FEA0B2B3FB238
:106A8000ADB23F1BABF5004B13F8084012F808906D
:106A900001FB07F713F80C800FFA85FA0FFA8BFB4E
:106AA00012F80CC02402CAEB0B0A01FB0AFAA4F587
:106AB00000444FEA09294FEA0828A4B2A9F5004981
:106AC000A8F500484FEA0C2C1FFA88F806EB274679
:106AD0000FFA89F927B2ACF5004CC7EB09090FFA98
:106AE0008CFC0FFA88F701FB09F905EB2A45C7EB87
:106AF0000C0CDDF804A036B201FB0CFC0AFB06F618
:106B00002DB20AFB05F504EB2944DDF8089024B208
:106B100008EB2C4809FB04660FFA88F809FB0855B6
:106B2000361406EB2545089C6D1024F8025B099E7F
:106B3000039DDDF81CA0B542504408943FF487AD96
:106B4000039F460817F8015B06F07E4C039700246C
:106B500006F07846002D3FF471AFA446204670E75A
:106B60002DE9F00FB0F90C40B0F918606404210E63
:106B700086B0DFF89CA14FEA410C5F4D059076048A
:106B80005E480CF1020C370E3CF805800AF1020950
:106B900035F811503CF800C0240A30F811003AF8DA
:106BA000171039F81770A4B2C5EB0808360AC0EB05
:106BB0000C0CB6B27F1A04FB08F804FB0CFC06FBB5
:106BC00007F7059E05EB1845B6F90E4000EB1C4093
:106BD00001EB1747ADB2B4F5804F0495BFB285B253
:106BE000716A306A7EDA4FF00008A146C4F5804B26
:106BF000CDF80880AF4270DDC5EBC53595FBF7F5E4
:106C000003955C1E002B61D03D4DDFF808A12B6879
:106C1000CDF804903FE047F6FF76B142A8BF314679
:106C20006D1A05FB07F6DDF8049000EBE63000FB7B
:106C300009FCDDF8088001FB0BF605FB08F54FEABF
:106C4000AC3C0CEBA63C2F4E0CEBA535B54237DB2C
:106C500047F6FF76B542A8BF3546DDF80C90013CFB
:106C600009FB05F5EE13A6F50046B6B24FEA262C51
:106C7000DFF8A4903AF81C5039F91C800FFA85FC13
:106C8000F6B2CCEB080C06FB0CF605EB2626651CD1
:106C900022F8026B16D01C4EDDF8108006FB03F6BE
:106CA00000FB07FC08FB00F5184B01EBEC3133440B
:106CB000144EED13B142C5EB6345ACDA3146AFE794
:106CC0003546CAE7DFF838C0CCF80030059C616271
:106CD000206206B0BDE8F00F704747F6FF7CCDF8A4
:106CE0000CC08EE7C4F5FF49A4F5804409F17F0983
:106CF00002944FF0000B7DE76CEE0008289001082D
:106D00002C0300200180FFFF0D6619005FF36E3C2D
:106D10004CB30108188601081A8601082DE9F00F06
:106D2000B0F90E70018BA7F5804701EB67070EB233
:106D30003FB243F6FF718F42A8BF0F468E42B8BFE5
:106D4000314621EAE17686B0760427EAE7770290B9
:106D50007F04300E8B4D3C0E4FEA40094FEA440A47
:106D600009F1020935F810C039F805100AF1020AD4
:106D700035F814803AF805B0360AB6B2CCEB01010A
:106D80003F0ABFB206FB01F1C8EB0B0B07FB0BFB85
:106D900001917D49CDF80CB0DDF808B031F8144010
:106DA0003AF801A039F8019031F810100398BBF9B6
:106DB0000C5008EB104B01984FEAE518C1EB09099C
:106DC000C4EB0A0A08F57E480CEB104C08F1D80811
:106DD00007FB0AFA06FB09F91FFA8BFB1FFA8CFC6A
:106DE00008FB0BFB08FB0CFC08FB08F801EB19493E
:106DF000AD10029904EB1A4A4FEA1C4C1FFA89F9AC
:106E0000C5F5FF551FFA8AFA4FEA1B4BCDF804C0AF
:106E1000CDF81090CDF814A0CDF80CB01F354FEA86
:106E200058484F6AD1F828C0CE6AD1F83090002B6C
:106E300000F09380DFF864B10432DBF800A0009525
:106E400045E047F6FF718842A8BF0846039908FB52
:106E500009F901FB06FCDFF840A10BEBEC31A1EBDB
:106E6000E93151455BDB47F6FF7C6145A8BF6146D0
:106E7000009D00EB010C05FB0CF90CEB693C1CF5CB
:106E8000004F45DDBCF5004F6CDBDFF814C14FF05F
:106E9000FF094FF4007A3D4DBCF800C035F90AB047
:106EA0000FFA8CFACAEB0B0A09FB0AFA0CEB2A2A36
:106EB0001FFA8AFA023B22F804AC22F802AC02F173
:106EC00004023DD0B146BC46A2460E4607463049B4
:106ED000304C01FB0AFA54444FEA644BBBF1000FFB
:106EE0001FDD0498059D00FB0BF105FB0BFB09144E
:106EF0004FEA2B4B019808FB0CFC00FB07FA01EB57
:106F0000EA302549A0EBEC3088429ADA08469DE742
:106F10004FF001094FF0020ADFF870C0BBE751469D
:106F2000A6E70498059DCBF1000B00FB0BF10BFBD2
:106F300005FB09144FEA2B4B4942CBF1000BD9E773
:106F4000DFF858B0CBF80040029D6862AF62E9629A
:106F50002E6306B0BDE8F00F7047314638464E4606
:106F60006746F1E7ACF5004C1FFA8CF94FEA292C83
:106F70004FEA4C0ADFF814C05FFA89F9D4440AF1E9
:106F8000020A88E7D4B901081485010818860108A7
:106F90000D6619005FF36E3C0180FFFF2C0300209B
:106FA000168801082DE9F00F804F86B0D7F800C091
:106FB000039200F140080246946A7D4EB4F1807F4E
:106FC0007C494FF0000501D8D46A6CBB06FB0CFC71
:106FD00061441FFA81FCBCF5804FDFF8E891754CE5
:106FE000D56280F0DA8006FB01F1B0F90CC00C44E8
:106FF0004FEAEC11B0F90EC039F8111026140CFB51
:1070000006F6C9009562D1624168002E4FEAE65C3F
:107010004FEA1125B8BF36165162ACBF05FB0C1103
:1070200005FB0611A446516210324245C4D15A1ED6
:10703000C7F800C00292002B00F0B1805E4F10E054
:10704000BCF5004FA8BF47F6FF7CC0F2AC80029CA5
:10705000039D013C029425F802CB0134039500F016
:107060009E80056B446A036AC16A826A466B234448
:107070002E440A44514D03628262120C35F81220EC
:10708000C16B846B04924E4A4FEA136C37F81CA014
:107090000C4432F91C10DFF824C106638463240C0D
:1070A0003CF81440456C026C05942A44846CC56C11
:1070B0000FFA8AFB05EB040CCBEB0108C3F30F249A
:1070C00004FB08F8416D846D036DC56D4FEA1669C8
:1070D0000AEB2848DFF8E8A00B44254437F81910DC
:1070E000364C3AF919900264C0F848C04FEA1C4C7B
:1070F00034F81CC00CB2C6F30F26C4EB090906FB1A
:1071000009F94FEA126A2E4E37F81A40CDF804C03A
:10711000DFF8ACC036F91AA001EB294903651E0E51
:10712000856537F816103CF916B00FFA89F60FFA94
:1071300084F9C9EB0A0AC2F30F2202FB0AF204EB3C
:1071400022420CB2C4EB0B0BC3F30F2303FB0BF374
:10715000DDF814C0049CDFF864A00CFB06F601EB1C
:1071600023410FFA88F82D0C019B04FB08F812B29A
:107170003AF8155003FB02FC09B205FB01F1761445
:1071800006EB684808EB6C4C0CEB614C1CF5004FAF
:10719000BFF656AF4FF4004C59E78C4644E706B0B3
:1071A000BDE8F00F70471FFA8CFC50E72C0300205D
:1071B0000D6619005FF36E3C208C010880F8000812
:1071C000228C0108309401082DE9F00FB0F90C1061
:1071D0008EB0029001F58061029C03930D91029B99
:1071E0000299E56A496A9B6A276B05910A93616B6C
:1071F000A36BD4F83CA0D4F848900795D4F840800D
:10720000E56CD4F844C0266D039C008C0897069169
:107210000993002C00F0A681CC4F0432019239680A
:10722000CDF810A0AB467BE003460FFA8AF101FBD4
:1072300003F14FF6FB4000FB03F0091400294FEA6D
:10724000104040F34181049A08FB01F702FB01F46E
:107250000CFB01F124143F140914059D47F6FA6351
:1072600009FB05F20A9D04EBE23203FB05F3B84C7F
:10727000A2EBE332A242C0F23D8147F6FF739A428D
:10728000A8BF1A46079C47F6FA650BFB04F3089C57
:1072900007EBE33305FB04F5AD4CA3EBE533A34269
:1072A000C0F2268147F6FF74A342A8BF2346069F7B
:1072B00047F6FA6406FB07F5099F01EBE53104FB8D
:1072C00007F4A34DA1EBE434AC42C0F20F8147F6C2
:1072D000FF718C42A8BF0C461919114411F5004FDB
:1072E00040F30181B1F5004FA8BF47F6FF71C0F22E
:1072F0004381019D039F25F8041C25F8021C023FD1
:1073000005F104050195039700F0F6800599069DA7
:10731000079F0A910995089751460694079305928D
:107320008C4BDFF83CA203FB01F18A440D99CAF3B0
:10733000160399427FF678AF029CCAF30B05A5F5B8
:107340000065B4F90E302DB205EB450603FB06F6D9
:10735000228BCAF3CC3103FB05F502F5C064A1F51D
:10736000805101FB03F104EB664443F6FF7324B242
:107370009C42A8BF1C4602F5186000EBE53002F500
:10738000F26224EAE47402EB214206B26404200EA5
:107390009E42A8BF1E4612B29A42B4BF15461D4671
:1073A0004FEA40086C4B26EAE676760408F10208BC
:1073B00038F80390310E25EAE5756D044FEA410C6B
:1073C000CDF810902A0E0CF1020C2D0A0C9533F812
:1073D00010903CF803B0049D240ACDF82CB0A4B260
:1073E000C9EB050B04FB0BFB360A0C9DB6B2CDF8BE
:1073F00000B00496DDF82CB033F81160ADB20C95F6
:10740000C6EB0B05DDF810B057000BFB05F5023796
:10741000DDF800B00B9533F81250FB5A09EB1B490D
:10742000C5EB030B4D4BCDF8009033F8100033F84B
:10743000111033F81220DDF8309038F803803CF852
:1074400003C0FF5A0B9B09FB0BFB06EB1346049B87
:10745000C1EB0C0C03FB0CFC05EB1B45DDF800B08D
:1074600001EB1C4CC0EB08081FFA8BF94FF6FF73B9
:10747000DDF830B00FFA8AF104FB08F8BF1A01FBFF
:1074800003F147F67C740BFB07F7B6B2ADB204FB11
:1074900006F604FB09F904FB05F500EB184809148E
:1074A0001FFA88F002EB1747002904904FEAE63BE9
:1074B0001FFA8CF84FEAE9394FEAE5361FFA87FCE4
:1074C0004FF6FA403FF7BFAE049B494203FB01F47D
:1074D00001FB08F701FB0CF124143F14091464426A
:1074E0007F424942B9E648F2010102E72C46F3E641
:1074F0002346DCE62246C5E614495D46D346DDF860
:1075000010A0C1F800B0DDF808B00799ABF8200072
:10751000CBF824200598069ACBF82800CBF83CA09D
:10752000CBF84890CBF82C30CBF83010CBF840801B
:10753000CBF84C50CBF83440CBF83820CBF844C0D3
:10754000CBF850600EB0BDE8F00F70472C03002060
:107550000180FFFF0D661900D4B9010814850108E8
:107560005FF36E3C099F069C089906970A9F079B4C
:10757000059A07910597C6E789B2BAE62DE9F00F9B
:10758000017F82B059B100210A264FF0FF3547F63E
:10759000FF7481620162017706864562C462B0F9B8
:1075A0000C10B0F90EC0C1F5FF417F31891001F513
:1075B0006161019141684FEAEC0909F5806905684C
:1075C00000915F1E002B75D05C4BC66A196890460F
:1075D00060E0DFF880A12C0EAAF1020B3BF814301A
:1075E0003AF914A01CB2C4EB0A04C5F30F2A0AFB33
:1075F00004FA03EB2A4A0FFA8AFA0AEB4A0A4FEA1C
:10760000AA0A036A019C01339C4203625DD3C5F35D
:10761000875B4B4A4B4B02FB01F10B4406EBA34645
:107620003412002CB8BF6442A145C6624BDCB4F5ED
:107630007A5FA8BF4FF47A54414A434902FB03F3EF
:1076400031F91BB03F49414A19440B1404FB03F3C1
:10765000DB1303FB0BF30AEBE33A92452FDBBAF59E
:10766000004F64DB4FF6FC7347F6FF7A03FB0CFC1C
:107670000AEBEC3A1AF5004F13DDBAF5004FA8BF3C
:1076800047F6FF7A57DB013F7B1C28F802AB0FD08F
:10769000B0F90EC0009C826A2544002A99D1924616
:1076A000AFE7013F48F2010A7B1C28F802ABEFD19B
:1076B000224B1960056002B0BDE8F00F704792469A
:1076C0004FF6FC73D2E74C46B6E7048E013CA4B2F9
:1076D000048624B1C5F3875B0023036299E7436AFC
:1076E000D2F1010238BF00220133194D8262436298
:1076F0009A08AA5C03F003035B0042FA03F3022238
:1077000003F0030302FA03F3013B9BB20F2B04D0F7
:107710000386A3464FF08045DEE764224FF0FF3337
:107720008462A346028643624FF08045D4E70AFB99
:107730000AF39B139AE71FFA8AFAA4E72C030020A6
:107740000D6619005FF36E3C208C01080180FFFF7D
:1077500040E60008228C01082DE9F04F017F93B02C
:10776000039300F5CA7304469046049300F29456BE
:10777000002940F04C8194F90D20A368B4F90E1053
:10778000C2F1AC0292B25B08A3F5003349120D922C
:10779000258CB4F82290A06AE26A06311F0A07FB22
:1077A00001F70795CDF82890616A0590944601E0AD
:1077B0005B087F08A648DD1B8542A64AF8D8974299
:1077C000F6D8238E62460693039B380C4FEA154980
:1077D000002B00F03181BFB2ADB2C9F500530C955A
:1077E000DDF81CA0C7F57F4508959BB20B970C9F51
:1077F0009A44DDF820B0C0F50060DDF81C90DDF89B
:107800001CC00A9B80B2C7F57F4781440BF1FF0B78
:10781000FF3700200CF1010C0133CDF83890CDF882
:107820003CA008F10405CDF820B00997CDF840C080
:1078300011930090029226E0B2F5004FC0F204814D
:1078400047F6FF7C6246DDF81890DDF844B00FFA89
:1078500089F80098039F42441FFA8BF85210434462
:107860000130023F25F8042C25F802CC009005F1E8
:1078700004059BB2039700F0B6800598019A029028
:10788000CDF818C00592DDF8008022681FFA88F351
:10789000DDF83880606898441FFA88F8024408F1DF
:1078A000FF3CDDF810902260CCF3090C19F90C7044
:1078B000DDF83CC0DDF82CA09C441FFA8CFC0AFBD0
:1078C00007F70CF1FF39DDF810B0C8F30908C9F368
:1078D0000B091BF9088016F9099008980C9A00FB0F
:1078E000087702FB09F944F26668CCF30B0C08FB3D
:1078F00001F116F90C80DDF828C0DDF824A09C44C5
:107900000AFB08991FFA8CFC3F14DFF850B13F02C4
:1079100043F2B86A0CF101080AFB07114FEA680844
:107920004FEA6C0C3BF81CC03BF818804FEA294921
:107930004FEA0929E044C91309EB5808DDF834C0BF
:1079400088440CFB08FADFF818C14FEA6A1ABAF14A
:10795000000FB8BFCAF1000AE245B8BFD4463E489E
:107960004FEA6C2C059A30F81CB041F6243C41F6E5
:10797000991A0CFB02FC0AFB07F708FB0BF80298AC
:107980004FEA2C3CDFF8DCA00CEBE737DDF81CC03D
:107990000AFB00FA4FEAE8389C44C9EB08091FFAD1
:1079A0008CFCC1EB0808109A4FEA2828CCF30B0B8B
:1079B00007EB2A3706F80B80DFF8AC801FFA82FA53
:1079C00001973A1A049F4FEA2929CCF3090C9A44EB
:1079D000424507F80C901FFA8AFABFF62DAF4246CF
:1079E00048F2010C2FE7019FB3F5B46FA8BF4FF425
:1079F000B4636384059BCAF30B0AA4F820A06162F8
:107A0000A762E362A4F830C013B0BDE8F08F184657
:107A100000214FF4806205F069F900214FF4805293
:107A2000304605F063F904F120000021C42205F07E
:107A30005DF9002323779EE6059FDDF818C00592C7
:107A40000A9BDDF81CA0CFE71FFA82FCFBE600BF13
:107A50000000FF0F0000FF035CA5010868AB0108F0
:107A6000FFFF010071F4FFFF0180FFFF2DE9F04FE0
:107A7000017F8BB0814690460093B0F820A0D0F8EB
:107A800024B000F5CA77002940F0D880D9F8082042
:107A9000724B5208A2F580329A4203D96F4B5208BA
:107AA0009A42FBD8B9F91800B9F90E10A0F50050A8
:107AB00000EB61006A49B9F90C30A0F3C71031F846
:107AC000100000995B100139C3F5DA436033069169
:107AD00000999BB204930290130CB9F82860002916
:107AE00000F0B68092B20392C2F57F4201925D49E6
:107AF000D9F80020C3F580530C680892D9F8041017
:107B0000019A9BB207915344FF32C0F58051CDF8E2
:107B100024900192D946059100259B4626E047F620
:107B2000FF794B45A8BF4B4603FB01F34E4902EBDF
:107B3000E3338B425EDBB3F5004FC0F28B8047F638
:107B4000FF794B46059A36B202FB06F602990135DB
:107B500001FB0363C3F30F36009BC0F30A009D4291
:107B600027F8109028F8026B48D0E146A8B200EB45
:107B70000B033E4A9BB202FB04F2591EC1F30A01F9
:107B800037F911C03A4C0399144401FB0CFC0499D9
:107B9000C3F30A03221437F9133001FB02F20199EF
:107BA000D21301FB03CC46F2666303FB02F24FEAF9
:107BB0006C4C304B0CEB090103FB01F1D21302F5C5
:107BC000CC42663203F66623C2EB213103FB01F39C
:107BD0001B1303F5B343DFF890901A3350444B4521
:107BE00080B29CDA4B4603FB01F31F4902EBE333FF
:107BF0008B42A0DA0B4648F20109A3E70899079BDC
:107C0000079A0B4406990AF1010A02FB0133DDF8D9
:107C100024901FFA8AFA134A8A44C9F800301FFADE
:107C20008AFA146036B2CAF30A0AC9F82860A9F8B9
:107C300020A0C9F824C00BB0BDE8F08F3846002161
:107C40004FF4805205F052F8002389F81C301DE7EC
:107C5000DC46E7E71FFA83F974E700BF0000FF077F
:107C6000D4B601082C0300200180FFFF0D66190027
:107C70005FF36E3CCDF0FFFF2DE9F04F017F1D4615
:107C8000468C038C91B000F2945700F5CA7C0446F0
:107C90000A9203930896D0F82480D0F828B0D0F840
:107CA0002CA00597CDF818C0002940F00D81A268DE
:107CB000B4F90E305200A2F500329B12110A303393
:107CC00001FB03F6921B01E052087608884B8949B4
:107CD0009A42F9D88E42F7D8B4F90C10B4F91800CA
:107CE0000911854BC1F503610431C01189B233F824
:107CF00010000D91130CA9B2370C0E92A9460990F1
:107D000004910B930C97D44642460F9614E0B0F5BD
:107D1000004FA8BF47F6FF70C0F2E780DDF828806B
:107D200019F0030F28F8020BCDF8288003D008992A
:107D30004B1C9BB208939346049B039E3344C9EBB0
:107D4000030109F1FF3989B2B9F1FF3F079100F052
:107D5000AB80039B049E03F5FF580B9F08F11F089F
:107D6000B044C7EB08081FFA89F6C6EB080894E888
:107D70000A001FFA88F80B44236008F1FF30059BC6
:107D80000E99C0F30B001F568BB207FB03F75B4D38
:107D90000297039FC8F30B00DDF8148007F2FF7A07
:107DA00057492F6818F90000DDF8108001FB07F132
:107DB0000C9FC244C3F57F43DDF80880FF33C7EB57
:107DC0000A0A099F03FB0080C6EB0A0A4D4BC7F560
:107DD00080561FFA8AFA0B44DDF8348002FB06F263
:107DE0000AF1FF31069E1F14C1F3090108FB07F7D2
:107DF000001416F90180099E400206FB1022424938
:107E00000292089ACAF3090A31F8126040F6D77153
:107E100001FB0CFCCDF804C0DDF83CC076001FFA75
:107E20008CF108FB01F8DDF818C03F131CF90AA01B
:107E3000C1F57F41DDF808C006FB07F7FF314FEAC7
:107E40002C3201FB0A81DDF80480CBEB020B0BEB3B
:107E5000283C06EBE736DDF81C804FEA6C0B2B6004
:107E6000CBEB06060914069B7612C8F309074902F4
:107E7000DE5515D4B1F5803F14DBFF21234B079E5F
:107E800033F9113040105B44059FC6F30B055B12BC
:107E900010F5004F7B553FF73AAF48F201003DE740
:107EA0000021EBE70912E9E7089F2384B7F5B47FC7
:107EB00028BF4FF4B47767846262C4F828B0C4F86E
:107EC0002CC011B0BDE8F08F00214FF4805238462D
:107ED00004F00CFF069800214FF4806204F006FFC6
:107EE0000023984623770893E1E680B216E700BFA7
:107EF0000000FF0F0000FF03D4B601082C03002090
:107F00000D6619005FF36E3C449E01081C88010851
:107F10002DE9F00FC17E8EB00393B1B30023012190
:107F200040F6FD7A40F60C594FF030084FF4406CA3
:107F3000C0274FF484564FF480454024C0F8E43005
:107F4000C0F8EC30C0F8F030C0F80031C0F80431AF
:107F5000C0F81431C0F81831C0F84831C0F84C31BD
:107F6000C376C0F810A1C0F8E890C0F8F880C0F857
:107F7000FCC0C0F80C71A0F83661A0F8385180F848
:107F8000341180F85011C0F83C41037FFBB1D0F8A8
:107F9000E440D0F8F810D0F80C31DFF85483DFF863
:107FA00054C3013401310133002744F250662225C5
:107FB000C0F8EC40C0F80011C0F81431C0F8F480EB
:107FC000C0F808C10777C0F81C61C0F83C51B0F98F
:107FD0000C30B0F90E105B0001FB01F1C3F57F43DB
:107FE000FF3303FB03F4C90B01FB01F1240C03FB7A
:107FF00004F3090C01EB410180319B0C07910399BB
:10800000C3F5FF430125A0F8383180F83451D0F88A
:1080100024B0002900F05F81D0F8E830D0F8F440B7
:10802000D0F80861D0F81071D0F814110B93D0F883
:108030003C3109940A960C970091049390F85041B2
:10804000D0F8F060D0F80431D0F81871D0F8FC10F6
:108050000294019606970D919A460B9B019C03FB97
:1080600004F1D0F8EC30090B002B019109DD013B44
:10807000C0F8EC302BB9099B002BB8BF5B42194408
:108080000191099ED0F80031002EB6BF019F0199E1
:108090007942002B00F002810D9E01F5804106FB24
:1080A0000AF44FEA143AC0F804A10ADD013BC0F813
:1080B000003133B90A9B002BB8BF5B429A44C0F829
:1080C00004A10A9F0C9C002F069FB4BFCAF10003B5
:1080D000534604FB07F61944009B360B002B40F374
:1080E000ED80013B0093C0F81431002B40F0E1809B
:1080F000D0F81C31048B002BB8BF5B42F3180693F9
:1081000000231C44A4B2002D40F0C280B0F83651C8
:10811000651B18BF0125161DA0F83641D0F848315F
:1081200080F834510C110596CDF820A0002D5FD1B8
:10813000D0F84481D0F84061049F77B1B3F5805FF7
:1081400040F3A880A3F500674FEAE70C1D11049FD8
:10815000E04405FB07F506EB6526D0F84C71614D50
:1081600006FB07FC08FB07F803EBEC33AB42A1EB83
:10817000E83880F28580C0F848512B46C3EB0808E8
:1081800008FB06F6574D07EBE636AE4207DBB6F5C1
:10819000004FB8BFC0F84C6103DB47F6FF75C0F86D
:1081A0004C51029D012D00F08180029E022E0CBFD9
:1081B00045461D4605EB0408079FCBEB080807FB67
:1081C00008F8484D0BEBE83BAB4548DBBBF5004FEF
:1081D000B8BF1FFA8BF502DB47F6FF7B5D4622F83E
:1081E000025B059DAA4242D090F83451002D9FD0E9
:1081F000B0F936C13C4EB0F938713C4D4FEA4C4CA9
:108200004FEA1C687F0406F1020939F8189036F825
:10821000186005F1020A4FEA176835F818503AF865
:1082200018804FEA1C2C3F0AC5EB0808C6EB090969
:108230001FFA8CFCBFB207FB08F70CFB09FC05EB2F
:10824000174506EB1C46ADB2B6B24FF0000AC0F8B7
:108250004061C0F84451A84680F834A16CE7AB46B1
:1082600048F2010522F8025B059DAA42BCD1039E9B
:10827000DDF820A0023E039627D090F83451ECE6BA
:10828000B3F5004FA8BF47F6FF73C0F8483175E754
:10829000012540E74FF0000C802558E70D9C04FBBA
:1082A0000AF34FEA133AC0F804A10AE7D0F84C5198
:1082B00080E70696048B4FF4086322E7048B06964A
:1082C0003FF41EAF4FF408631BE7019F0699C0F807
:1082D000F070C0F81811C0F824B00EB0BDE8F00F6F
:1082E000704700BF0180FFFF4CB301086CEE00082F
:1082F000333304003DCAFFFF2DE9F00FC17E9EB06D
:108300000A93002940F0908390F87411037F002BAA
:1083100040F02483038B90F8345103F5C064A4B279
:1083200090F85461002D40F0DC83B0F836C1B4EB16
:108330000C0C18BF4FF0010C03F5406580F834C1F8
:10834000A0F83641ADB2002E40F0D983B0F85641C6
:108350002C1B18BF012403F5F0539BB280F8544145
:10836000A0F85651002940F0F782B0F876515D1B15
:1083700018BF0125B0F90C10A0F876314910C1F5ED
:10838000AB460A9B01F5AB41703601F1700780F8EE
:10839000745118961997002B00F0DA82D0F8E86033
:1083A000D0F8F4301A96234FD0F8FC60D7F800804C
:1083B0001493D0F80071D0F808311B96D0F81061F2
:1083C00003971593D0F81471D0F81C311C96D0F88F
:1083D000246104971693D0F83071D0F83C311D9683
:1083E00090F8506117971193D0F85C71D0F87C31F8
:1083F0000E9690F8709190F8906112971393D0F8C0
:1084000048B1D0F86811CDF83C90D0F8883110967A
:10841000D0F8F070D0F8046106970796D0F818717C
:10842000D0F82C6104320897099605920D950C94AA
:10843000FCE000BF2C030020D0F84481D0F840615C
:10844000119D7DB1BBF5805F40F36982ABF500679C
:108450004FEAE70C4FEA2B15119FE04405FB07F5A7
:1084600006EB6526D0F84C71BF4D06FB07FC08FBF8
:1084700007F80BEBEC3BAB45A4EBE83806DBBBF5B0
:10848000004FA8BF47F6FF75C0F23683C0F84851C9
:10849000AB46CBEB080808FB06F6B34D07EBE63618
:1084A000AE4206DBB6F5004FA8BF47F6FF75C0F237
:1084B0002083C0F84C510E9D012D00F034820E9E99
:1084C000022E0CBF45465D46189F05EB241407FBA2
:1084D00004F40C9DE413002D40F0BE81D0F86481BB
:1084E000D0F86061129D75B1B1F5805F40F31382E1
:1084F000A1F500674FEAE70C0D11129FE04405FB60
:1085000007F506EB6526D0F86C71974D06FB07FC66
:1085100008FB07F801EBEC31A942A2EBE83880F246
:108520009381C0F868512946C1EB080808FB06F69C
:108530008D4D07EBE636AE4206DBB6F5004FA8BF21
:1085400047F6FF75C0F2D282C0F86C510F9D012D25
:1085500000F0EC810F9E022E0CBF45460D46199F80
:1085600005EB221207FB02F204EBE2340D9A002A1B
:1085700040F03781D0F88421D0F88051139E76B135
:10858000B3F5805F40F3C381A3F500674FEAE70CC2
:108590001E11139F624406FB07F605EB6625D0F813
:1085A0008C71714E05FB07FC02FB07F203EBEC3309
:1085B000DDF82C80B342A8EBE23280F2A081C0F853
:1085C00088613346D21A02FB05F5674E07EBE535A5
:1085D000B54280F28681109DC0F88C61012D00F0BB
:1085E0008B81109E022E18BF1A46144414F5004FBA
:1085F00040F37481B4F5004FA8BF47F6FF72C0F294
:108600007382059F27F8042C27F8022C0A9A043756
:10861000023A05970A9200F08C8190F8544190F844
:10862000745190F834C1D0460C940D95069F1A9A57
:1086300007FB02F4D0F8EC20240B002A069409DD95
:10864000013AC0F8EC202AB9149A002AB8BF524265
:1086500014440694149C079F002C1B9CB8BF069DD5
:1086600007FB04F2B8BF6E42039DA8BF069E120B23
:10867000002D07920BDD013D0395C0F8005135B97F
:10868000159A079F002AB8BF524217440797159AB8
:10869000089F002AB6BF079D079C6C421C9D34446E
:1086A00007FB05F2039F120B0892049A002F40F675
:1086B0003D2508BF0025002A2C440BDD013A049219
:1086C000C0F8142132B9169A089D002AB8BF524248
:1086D00015440895169E099D002EB8BF089F234A91
:1086E000B8BFC7F100091D9F02FB08F805FB07F69C
:1086F000049ADFF880A0D0F82851A8BFDDF82090B8
:10870000002A43F2333208BF0022360BC244002D48
:1087100009964A444FEA2A460ADD013DC0F828512D
:1087200035B9179D099F002DB8BF6D422F44099799
:10873000179D002DB6BF099F099D7D4205FB06F6DA
:10874000F6130B96BCF1000F3FF476AEB0F936C1CC
:10875000074E4FEA4C4C4FEA1C6806F10209B0F98B
:10876000387139F8189007E00180FFFF0D66190095
:108770004CB301085FF36E3C7F044FEA1C2C36F8C3
:108780001860CDF808904FEA17681FFA8CFC3F0A72
:10879000DFF87C93CDF800C0BFB2DDF808C0D94D3A
:1087A0000297009F35F8185039F81880C6EB0C096D
:1087B00007FB09FCDDF80890CDF80480C5EB08083C
:1087C00009FB08F706EB1C4605EB1745ADB2B6B240
:1087D0000027C0F84061C0F84451A84680F83471C1
:1087E0002EE6B0F97671C84DB0F97861C54A7F04BC
:1087F0004FEA176C760405F1020838F81C8035F84A
:108800001C5002F102094FEA166C32F81C2039F8AC
:108810001CC03F0A360AC5EB0808C2EB0C0CBFB2FD
:10882000B6B207FB08F706FB0CF605EB174502EBA3
:108830001642ADB292B24FF00009C0F88051C0F8B4
:10884000842180F8749199E6B1F5004FA8BF47F6EE
:10885000FF71C0F8681167E6B0F956C1AA4E4FEA39
:108860004C4C4FEA1C6806F10209B0F9587139F80E
:1088700018907F044FEA1C2C36F81860CDF8309021
:108880004FEA17681FFA8CFC3F0ADFF88492CDF894
:1088900004C0BFB2DDF830C09A4D0C97019F35F887
:1088A000185039F81880C6EB0C0907FB09FCDDF8F5
:1088B0003090CDF80880C5EB080809FB08F706EBF7
:1088C0001C4605EB1745ADB2B6B20027C0F8606193
:1088D000C0F86451A84680F8547103E648F20102DA
:1088E0008FE6B5F5004FA8BF47F6FF75C0F88C516D
:1088F000109D012D7FF475AED0F88C2175E6B3F58F
:10890000004FA8BF47F6FF73C0F888315AE64FF012
:10891000000C80263DE64FF0000C8025EDE54FF081
:10892000000C802598E5D0F84C51CDE5D0F86C517D
:1089300015E6069C079D089E744F099AC0F8F04002
:10894000C0F80451C0F81861C7F800A0C0F82C2185
:108950001EB0BDE8F00F704701250BE5B0F90E80A1
:10896000038BB8F5804F1CB2ACBFA8F5804500253D
:10897000C4F5404425444FF6FF74A542A8BF2546E0
:10898000D0F8F860C5F34F144FEAA53904F5E24C6E
:108990000136D0F8E470D0F80C5109F6FC7904F5F2
:1089A000CF44B8F5605F1FFA89F904F10404C0F8F8
:1089B0000061D0F820610CF1480C07F1010705F1C6
:1089C0000105B8BF4FEA48089BB2DFF848A1C0F8DC
:1089D0002491A0F858414FF4F0294FF00104A0F879
:1089E00038C1C0F8EC7043F2333CC0F81451C0F801
:1089F000F490B4BF08F500784FF4E44803F5C0697B
:108A000003F5406526440027C0F81CC1C0F808A142
:108A1000A446C0F83081A0F83691ADB2C0F8286104
:108A200080F83441077796E440F6FD7C002301246A
:108A30004FF4845530274FF48046C0F824C14FF4DA
:108A4000C06A4FF440694FF496684FF4FA6CC0F86E
:108A5000E430C0F8EC30C0F8F030C0F80031C0F8B5
:108A60000431C0F81431C0F81831C0F82031C0F812
:108A70002831C0F82C31C0F84831C0F84C31C0F86A
:108A80003C31C0F86831C0F86C31C0F85C31C0F8D6
:108A90008831C0F88C31C0F8E8A0C0F8F870C0F890
:108AA0000C71C0F8FC90C0F81081A0F83651A0F805
:108AB0005651A0F87651A0F83861A0F8586180F8B6
:108AC000344180F8504180F8544180F8704180F87A
:108AD0007441C0F87C3180F89041C376A0F878C129
:108AE00014E44FF0010C27E4A2B28AE5C0F86C61EF
:108AF0002CE5C0F84C61DEE4C0F848B1C9E40124BB
:108B000029E400BF6CEE00084CB301082C030020E0
:108B10006EEE00080080FFFF10B443F6FF73994229
:108B2000A8BF1946A1F58043002213F5C06302F1E6
:108B30000102FAD418110849441C51F8244051F894
:108B4000201003F00F03601A03FB00F301EB231066
:108B5000D0405DF8044B7047908301082DE9F04F39
:108B6000B0F90C60048BA6F5804604EBA60687B02E
:108B70000F4631B29146056898460190FFF7CCFF49
:108B8000DDF804A00390BAF90E305046A3F58043F7
:108B900004EBA30109B2FFF7BFFFDAF80420049049
:108BA00005F180450292DAF82C40DAF83000B8F18D
:108BB000000F77D0404EB844CDF81480B21C60E06E
:108BC00006EB010CC5F30F230231DDF80C80BCF875
:108BD00000C044444FEA146836F901B036F8181062
:108BE00032F918800FFA8CFACDF80080CAEB0B0B23
:108BF000DDF8108003FB0BFB009B0FFA81FA404469
:108C0000CAEB0308C4F30F2A0AFB08FA4FEA1068FC
:108C100036F8183032F9188001EB2A410FFA83FA3E
:108C2000CAEB08080CEB2B4CC0F30F2A09B20AFB65
:108C300008F80FFA8CFC01FB0CFC03EB28484FEA08
:108C40002C4C0FFA88F101FB0CF10914A1F500413D
:108C5000DFF8688089B24FEA212C38F81C3008F11F
:108C6000020A3AF91C800FFA83FCC9B2CCEB080C5B
:108C700001FB0CF103EB212329F8023B059B9F42EA
:108C800010D0029B17F8018B1D44290E00234900C8
:108C9000DFF824C0B8F1000F92D018461C461D46DC
:108CA000022192E7019F05F140453D60FC62386377
:108CB00007B0BDE8F08F00BF208C010818860108BE
:108CC0002DE9F04FB0F90C70068B07F5806707FBB4
:108CD00007F795B00196DDF804C07F12039313AB3C
:108CE00004460D460292A7EB87061FFA8CFA0DF197
:108CF000300804930AEB264B1FFA8BFB0FFA8BF11B
:108D00002046FFF709FF0BF10101814609B2204619
:108D1000FFF702FFB3B2C9EB000003FB00F3DDF87D
:108D200010C009EB234348F8043FE0453E44E1D13D
:108D3000237F8BB16E4E0022316800E019466D48EA
:108D40006D4B00FB01F0A11804320344182A0B629A
:108D5000F4D1002233602277B4F90E3042F6A92212
:108D60009342019EA3F52A53A3F12A0303EB430385
:108D70000FFA86FBD4BF0BEBA3020BEBE30282F3EB
:108D80000F025E4B5204110E981C33F8113030F86C
:108D900011104FEA1229C91A1FFA89F909FB01F9C2
:108DA000574A03EB194312881FFA83F9039B059274
:108DB000206DE26C002B00F094800D9E0E990496BD
:108DC00006910F9E109907960891119E1299DDF851
:108DD0000CC0236809960A91139E0499AC44DFF8ED
:108DE00028810B96CDF80CC00B4419E03246BF1A0F
:108DF00007FB09F117F5004F00EBE1306EDDB7F529
:108E0000004FA8BF47F6FF7770DBDDF808C0039E70
:108E100004992CF8027BB542CDF808C00B4460D011
:108E200015F8011B31B1002121626162A162E1628A
:108E300021636163666A216A079FDDF818C03744C1
:108E40008C44A66A08994FEAD74B31440BEBDC4BB4
:108E5000E66ADDF824A0ABF5E04BA162B2440BEB6F
:108E6000D14B0A9E216B676231440B9F666B0BEB03
:108E7000DA4B37440BEBD14B0BEBD74B0BEBD34B14
:108E8000ABF5004B1FFA8BFB4FEA2B26C4F820C032
:108E90002163C4F82CA06763DFF870C038F816109F
:108EA0003CF916700EB2BE1B5FFA8BFB0BFB06FB88
:108EB00000FB09FC059E01EB2B2106FB00F7114E80
:108EC00002EBEC3209B2B2422360A1EBE7378DDB53
:108ED00047F6FF718A42A8BF0A4688E748F20107B1
:108EE00093E7E264206515B0BDE8F08FBFB28CE770
:108EF0002C0300200D6619005FF36E3C4CB3010893
:108F00006CEE00080180FFFF188601081A86010830
:108F10002DE9F04FB0F90C70058BA7F5006705EB54
:108F20006707457F8FB03FB243F6FF760391043D5C
:108F3000B742B4BF39463146066AEDB204460C96D4
:108F4000079505921E46FFF7E7FD676AA56A029737
:108F50000C9FE16A874280F0FC80C01BB0FBF6F0FA
:108F60000890701E0D90002E00F0EA806268079F46
:108F7000049207F002030498039F40003744DBB2D9
:108F800022680B9709900A930C9E91E00298C2F315
:108F9000CF3A8AEAE27730446FEA0A0A6FEA12436C
:108FA0000290BFB294F8300001971FFA8AFA9BB280
:108FB0004FEA420C049F974205D9DFF8AC81079F26
:108FC00058F827700297099F674500F2A48035443E
:108FD000634F4FEA156C37F81C80023737F91CB025
:108FE0000FFA88FC029FCCEB0B0BC5F30F2C0CFB8C
:108FF0000BFB4FEA17695A4F08EB2B4837F819C09B
:10900000023737F91990029F0FFA8CFBCBEB090955
:10901000C7F30F2B0BFB09FB0FFA88F80AFB08F8C4
:10902000B4F80E90019F0CEB2B4B0FFA89FA4FEA24
:1090300028480FFA8BFBBAF5804FA8BF3B4608B112
:10904000C8F10008069887B208FB07F7454801EB0E
:10905000274181425DDB47F6FF708142A8BF014690
:109060000A9F002F41D00BFB03FB1FFA88F84FEA41
:109070001B4BBAF5804FA8BF6FEA09094FEA89096F
:109080001FFA89F90FFA88F808FB09F8C9F57F4932
:1090900009F1FF090FFA8BFB09FB0B89059F4FEACA
:1090A000294927F8029B05970B98039F87423FD0D9
:1090B000049B039F1A442260089817F8013B06445A
:1090C0000397B70B0697002B3FF460AF00230120F6
:1090D0004FF6FF7A01931A46236019461D46029304
:1090E0009C4684F83000534664E70BF5004B0BFBBD
:1090F00003FB079B4FEA2B4B012BABF5004B08BF43
:1091000088441FFA8BFB14BF1FFA81F8C8F34F087D
:10911000AFE70146A4E7079D80F0010005F0010CD0
:10912000114D0CF1020C55F82C5084F830004FE72B
:109130000C9E089B089F0D98334400FB07330C934B
:10914000029AA5620C9D6262E16225620FB0BDE8E1
:10915000F08F0C9F381AB0FBF6F0C043089000E780
:10916000208C01080180FFFF90DD00082DE9F04F01
:10917000B0F90C5087B00E466910044602921F46A3
:10918000FFF7CAFCB4F90E102062054649102046CC
:10919000FFF7C2FC80466062002F7DD06168F7193E
:1091A000DFF804B12268039105975FE00144C2F340
:1091B0000F290230E76A236B3D444344DFF8E08027
:1091C000E5624FEA156C3BF81C7038F81CA0DFF81C
:1091D000D4C023633CF800000197314F4FEA136875
:1091E00000903BF8180037F81880039F09889742D1
:1091F0004CD8019F0FFA8AFA0FFA87FCCCEB0A0CC5
:10920000C5F30F250FFA80FA0FFA88F8009F05FBC7
:109210000CF5CAEB0808C3F30F2303FB08F3C1EBFB
:10922000070C09FB0CFCDDF8048000EB234008EB85
:10923000254545F34E0501EB1C4105F5C04540F3BE
:109240008D00C1F34E012B1803FB01F3DB13A3F5D3
:10925000C0439BB2DDF808C005992CF8023B8E4252
:10926000CDF808C018D0256AD4F82480039B0D4996
:109270001A44226016F8017B0023100E9946400024
:10928000002F93D0236002201A4693E70023E36265
:1092900023634FF42043DDE707B0BDE8F08F00BF44
:1092A000228C010888FE0008208C01082DE9F04F6F
:1092B000058BB0F90E4005F5C065A4F5804405EBBB
:1092C000640485B00E4621B280461F469146FFF7E2
:1092D00023FCB8F80C30B8F910C019B247F6FF7289
:1092E00040080190CCEB0101D8F82050B2FBF7F216
:1092F000002F4AD002FB01F22748D8F80410F719D2
:10930000D8F800400092134603910297821C0399FB
:10931000DDF800B00C44C8F8004016F8017B0CEBF7
:10932000E33A00215B441FB10C46C8F800100D461B
:1093300001990D442F0E30F8171032F917B00FB203
:10934000C7EB0B07C5F30F2B0BFB07F701EB274709
:109350003FB20AFB07F704EB87074FEA176A30F8BA
:109360001A1032F91AB00FFA81FACAEB0B0AC7F3D6
:109370000F2707FB0AF7DDF808B001EB27475E452A
:1093800029F8027BC3D1B8F80C30A8F81030C8F81F
:10939000205005B0BDE8F08F208C01082DE9F04F7A
:1093A0008046048BB0F90E0025B2A0F58040A5F5EB
:1093B000105540100544AD00C5F5FF4587B07F3519
:1093C00000950E460099914600299A46B8F82470F7
:1093D000D8F82050C0F2848047F6FF739942A8BFA6
:1093E0001946009104F5C064211809B24046FFF700
:1093F00093FBB8F91010B8F80C300191DDF804B007
:1094000019B247F6FF7240080390CBEB0101B2FBA3
:10941000FAF2BAF1000F5AD002FB01F23348D8F841
:109420000410B244D8F80040029213460591CDF8DA
:1094300010A0821CDDF804B005990BEBE33CDDF8CD
:1094400000B00C440BFB0CFCC8F80040DDF808B081
:1094500016F801AB3FB200214FEAEC3C5B44BAF195
:10946000000F03D00C46C8F800100D4603990D44B8
:1094700005EB87374FEA176A30F81A1032F91AB03D
:109480000FFA81FACAEB0B0AC7F30F2707FB0AF79B
:1094900001EB27473FB20CFB07FC04EB4C0C4FEAF7
:1094A0001C6130F8117032F911A039B2CCF30F2CD5
:1094B000C1EB0A010CFB01FCDDF810B007EB2C47F7
:1094C000BFB25E4529F8027BB4D1B8F80C30A8F8D9
:1094D0001030A8F82470C8F8205007B0BDE8F08F0D
:1094E0004FF0000BCDF800B07CE700BF208C0108E6
:1094F0002DE9F04F058BB0F90E4005F5C065A4F5D8
:10950000804405EB6404074687B00E4621B29A46B4
:109510009046FFF701FBB7F91020BB890192019D2E
:1095200019B247F6FF724C1BB2FBFAF2B98C3D6AD6
:10953000BAF1000F5FD002FB04F202927A68400A8F
:10954000B244DFF8C4C03C6804920590CDF80CA08A
:10955000029B009731E00CEB0A01C5F30F220AF1E0
:10956000020A09883CF90A7008B2381A02FB00F0B6
:1095700001EB204000B209FB00F904EB49094FEA76
:109580001961204F3CF8112037F9110011B2411A2E
:10959000C9F30F2909FB01F102EB214189B241F323
:1095A00046220598813200FB0255039ADDF808B087
:1095B00096425B4428F8021B1BD0049FDDF800B0E4
:1095C0003C44CBF8004016F8017BDDF804B00020E5
:1095D0004FEA156A02464FEA4A0A0B490BEBE33998
:1095E000002FB8D0009D044628604FF0020A0546BF
:1095F000B7E7009FBB893B82B9843D6207B0BDE8F5
:10960000F08F00BF228C0108208C01082DE9F04F5B
:10961000017F93B0804614460593002900F029810C
:10962000B24A866F02F10C05034632F9021FB6F505
:10963000806F4FF08040B8BF1862AA42C3F8A410F0
:1096400003F10403F1D1002388F81C30B8F818A006
:10965000A74D1FFA8AF905F10C07464635F8021F97
:109660004046494409B2FFF757FABD424FEA40006D
:10967000F06406F10406F1D1B8F90E300FFA8AF160
:10968000A1F5C06101EBA3019A4A81F30F0109041E
:10969000080E951C35F8105032F81020090A88B2CF
:1096A000A91A00FB01F002EB104292B2B8F8D00008
:1096B0000692D8F8D82043F2572107900292D8F8A2
:1096C000DC00D8F8E0208B420390019200F3F78091
:1096D00003F58053099300230893059A4FF48033D0
:1096E000B3FBF2F30A93002A00F0AB80824BDDF863
:1096F00020A00434CAF5405A19680494CDF82CA06F
:109700004FF0000C08F120097C4B0A9803FB01F391
:109710007B49794A19440B14B3F5804F8444116096
:1097200000F38C80774A9342B8BF13460298069A9A
:109730001B1A02FB03F3039A00EBE330DDF818A0D9
:10974000831A0AFB03F30290019802EBE332131A27
:109750000AFB03F3039200EBE3300022019017466B
:109760004C46C8EB04034B44DD6853F8200CDFF88B
:10977000A0A1284443F8200C050E3AF815600AF120
:10978000020A3AF915B09D6B0FFA86FA5B6EC0F3C8
:109790000F20CAEB0B0A00FB0AF05B1B0CFB03F368
:1097A00006EB204636B205EBE33303FB06F30CA8C9
:1097B0001B1483500432182A04F104041F44D0D12E
:1097C00001980D9A0F9B02FB00F203FB00F3DDF8FA
:1097D0002CA0089812120AFB02F25B12DDF824A0FA
:1097E00000FB03F30AFB07F70C98474C00EBA23091
:1097F00000EBA33303EBA737A7421BDBB7F5004F02
:10980000B8BFBAB202DB47F6FF7217460798DDF819
:1098100010A003B23B445B102AF8043C059B2AF8D5
:10982000022C023B0AF1040ACDF810A0059309D0DE
:10983000079269E7274648F20102E7E74FF48043C1
:1098400074E7079AA8F8D020019B0298039AC8F8F9
:10985000E030C8F8D800C8F8DC200B2308F1A008D5
:1098600058F8042F013B48F82C2CF9D113B0BDE86F
:10987000F08FB0F90C30B3F5FA4FBFF6E7AEC3F591
:10988000FF437F331B1203FB03F3DFF888E01F4F16
:10989000DE1102460B463EF80310FD5A906F4D1B39
:1098A00006FB05F5A1EBE51100FB01F00233001406
:1098B0000C2BC2F8A40002F10402ECD1C6E6B3F509
:1098C000804F0CDBA3F5804343F2582202FB03F3E5
:1098D0004FF4804A9B13CDF824A00893FDE60020A6
:1098E0004FF4804208900992F7E600BF46D800087E
:1098F00036DD00084CB301082C0300200D6619006A
:109900005FF36E3C00C0FFFF0180FFFFA0DD000899
:10991000208C010844DD00082DE9F04F017F97B04D
:10992000119091460C9399B1174C0022216805467D
:109930001648174B00FB01F1A81804320B44102AFB
:10994000036201D01946F3E72360119C00222277BD
:10995000119E7768F5890D97119F6B01326A746AC1
:109960009BB2B66AFF6AB3F5F04F45F3C425029285
:109970000394049605970DD3B3F5084FC0F01A82EF
:109980004FF6FF7808E000BF2C0300200D66190099
:109990005FF36E3C4FF00008ADB205EB45056D007E
:1099A000224BDDF844A0AE1DDDF844B0BAF81870C3
:1099B0001E441D444FF0000A13AC35F80A3036F847
:1099C0000A10DA19C91A08FB01F102EB214109B2A8
:1099D0005846FFF7A1F844F81A000AF1020ABAF152
:1099E000060FEAD1DDF844B0114ABBF80C0040F391
:1099F0008523D1184978D25C80010E4B01EBC1114F
:109A000002EBC21280B20690C818D1180C9A002A34
:109A100000F0C481139B149C159D09F104090E9359
:109A20000F941095CDF82090034605E0D8D9000892
:109A300040DA000890020108029F0D9E049D0F9CD1
:109A40003744254402970495109E7D0E059F11F81A
:109A5000058037446E1C11F806A0DDF808B0039AA3
:109A60000E980597C8EB0A0A5F5DCBF357050244D1
:109A700013F806C005FB0AFA540EDDF810900392A5
:109A8000C7EB0C0C621C4FEA08284FEA59608E5C49
:109A900013F804900CFB05FC9A5CA8F50048DDF86F
:109AA00014B008EB2A480D5DC9EB0202441C1FFAF2
:109AB00088F83F02CDF81C800A9213F804A04FEA00
:109AC0005B62A7F5004711F804B00C5C185C07EB6B
:109AD0002C47DDF81CC0C0EB0A0ACDF82CA03FB221
