:400000000040002011000000890000008900000008B5044B1A6803F53F5302331A6000F035F800BFFA46004010B5054C237833B9044B13B10448AFF300800123237010BD78
:4000400010C1FF1F00000000F4030000084B10B51BB108480849AFF300800848036803B910BD074B002BFBD0BDE81040184700BF00000000F403000014C1FF1F08C1FF1F83
:400080000000000062B6FEE7FEE700BF08B5104E104D16E029686B68AC68002204E051F8040B43F8040B0432A242F8D1E868002203E0002143F8041B04328242F9D1103555
:4000C000013E002EE6D100F05BF9FFF7DBFFFEE7010000005404000008B5124A124B1A60124A136843F40073136000230AE0032B03D80F4A52F8231000E00E490E4A42F8F1
:40010000231001332F2BF2D90C4B1A780C4B1A70094A0C4B1A6000F0AFF800220A4B1A6008BD00BF0004FA050CED00E014ED00E0000000008900000000C0FF1FBC760040A3
:4001400004C1FF1F08ED00E000C1FF1FFEE700BFF0B40022174611E050F82760F3B226F0FF0608E001EB420511F812406D78A5550132013BDBB2002BF4D10137172FEBD91E
:40018000F0BC7047064B1B78DBB203F00701054A11701B09013213704422034B1A707047CF0100496E5800407658004008B50A46002100F016F908BD38B51722244B1A8083
:4001C000182202331A70022203F27E231A7008224FF040231A70032103F5007319701D4B1B78DBB21C490B701C4B1A8041F25122023B1A80002419250CE0194B1B7803F036
:40020000010343EA440404F003044FF4F07000F0A7F8013D0DB1032CEFD115B90320FFF795FF104B4FF480721A8007221A7000220D490A704820023108701A700222033BE4
:400240001A700A4A137843F00103137038BD00BF8040004008010049A146004022420040254200400440004006400040A243004008B500F0ABF808BD70B572B6294A137854
:4002800043F00403137000240CE0274963001A1952000A4423445B00C8589188FFF786FF0134E4B2082CF0D94FF090401F49FFF74FFF1F4A137843F0020313701032137856
:4002C00043F0020313701B4C237843F040032370A2F58632513A137843F010031370164816490A22FFF7C4FF154816490822FFF7BFFF6422144B1A70144A137843F0080338
:400300001370134E01253570FFF756FF81233370104B1D70FFF736FF0F4821460E22FFF7A7FF70BDE8460040F80300006000004803500140A04300400051004060020048AF
:40034000625100406C020048DB0C0140224300400048004004000840B0430040000000000230800803D000BF01380046FCD17047EFF3108072B6704780F31088704700BFDF
:400380000E4B70B51E460E4C0025E41AA410A54204D056F8253098470135F8E700F048F8084B094C1E46E41AA4100025A54204D056F8253098470135F8E770BD3C04000006
:4003C0003C0400003C0400004404000010B5431E0A44914204D011F8014B03F8014FF8E710BD03460244934202D003F8011BFAE77047000000000000C8490040190010511E
:4004000000405000C05100401000F0510040100000000140001000140140000800400140000A004C014000020050014020000000F8B500BFF8BC08BC9E4670474D000000F5
:40044000D9000000F8B500BFF8BC08BC9E467047290000006804000008C1FF1F08000000200000000000000000000000000000000000000000000000000000000000000080
:40048000000000000000000000000000000000000000000000000000000000000000000000000000000000000000000000000000000000000000000000000000000000003C
:4004C00000000000000000000000000000000000000000000000000000000000000000000000000000000000000000000000000000000000000000000000000000000000FC
:4005000000000000000000000000000000000000000000000000000000000000000000000000000000000000000000000000000000000000000000000000000000000000BB
:40054000000000000000000000000000000000000000000000000000000000000000000000000000000000000000000000000000000000000000000000000000000000007B
:020000040001F9
:0200000480007A
:4000000005520040036400400103014003050140070B01402F0C0140390D0140220E0140250F014001150140011B0140084101400742014001430140054401400845014053
:40004000084601400447014001480140024901400B4C0140014D01400250014001510140000101020403308034708D078E788F47E601E208E880EC10A920AB02B440B604DA
:40008000E208E880EC1056085B0486808A1E8C108EC19A21A0C1A202A4C1A604A8C1AA08B080B220B440B61FBE51C002C106C220C401C50EC6DCC7BFC83DC9FFCAFFCBFF4D
:4000C000CC22CEF0CF0CD08CD110D602D724D804DA24DB24DC08DD88DE08DF31E840E901EAC0EB0100100140032008200A400B8010A818551920400548044A105102520446
:400100005360580859045D105E485F02622064086580676068A86940780179208401851087209120976098209D849E04A004A220A502A610A901AA08B028B110B440B580B1
:40014000B708C007C202C40ED00CD204D6F0D8F4DE05E202E60108021201150128013001350136023E413F105420580459045B045F018E018F0392019D01A704A904AA0266
:40018000AC01B001B102B202B301B504BE01BF14D441D804D904DB04DF01020C058009020F40100816081780188019401E801F04200822202404250427802E082F1430086F
:4001C00037803F404410450459015EA05F08600461446410C082C218C4C2CA60CC12CE10D671D84EEA01EA010102040154105B408340C030D4C0E6803E108410A410B10228
:40020000B401CE20E210961008410C085C01C20ED60180808408A008B041B401EA01EC08EE04864098209C80A110B020B510E801EC0898209C809E40A1109610AA10EA808D
:4002400012401320148078207D2098209C809E40A110C40EDE03AB2000010E0103C00000030000000300030000000000708080008000000000000000000000000000000083
:40028000000000000000000000000000000000000000000000000000000000000000000000000000000000000000000000000000000000000000000000000000000000003E
:4002C00000000000000000000000000000000000000000000000000000000000000000000000000000000000000000000000000000000000000000000000000000000000FE
:4003000000000000000000000000000000000000000000000000000000000000000000000000000000000000000000000000000000000000000000000000000000000000BD
:40034000000000000000000000000000000000000000000000000000000000000000000000000000000000000000000000000000000000000000000000000000000000007D
:0200000490006A
:0400000000004005B7
:0200000490105A
:04000000BC90ACAF55
:0200000490303A
:020000002A32A2
:0200000490402A
:4000000000000000000000000000000000000000000000000000000000000000000000000000000000000000000000000000000000000000000000000000000000000000C0
:400040000000000000000000000000000000000000000000000000000000000000000000000000000000000000000000000000000000000000000000000000000000000080
:0200000490501A
:0C00000000012E13306900012E155A9BE0
:00000001FF