:400000000040002011000000A1030000A103000080B500AF00F0CEF980B500AF114B12221A6002F0C9FE302002F01AFF0E4B0F4A1A600F4BCC2292011A600E4B0E4A1A60BE
:400040000E4B802212061A600D4B8022D2021A600C4B40221A600C4B00221A60C046BD4680BDC0463000104004010B4006000080000301400000014040FF008008010B404B
:4000800000010B404C0101400C020B4080B582B000AF72B63F4B01221A70FB1D00221A7022E0FB1D1A7813005B009B185B003A4A9B183B603B681A78597809020A4399786B
:4000C00009040A43DB781B06134318003B681A795B791B0213439BB2190000F0FBF8FB1D1A78FB1D01321A70FB1D1B78012BD8D92A4A2B4B1100180000F0FCF8294B8022EA
:4001000052001A80284B01221A70284BCC2292001A60274BEE2212021A60264B264A1A60264B802292021A60254BD02292031A60244B992212041A60234B01221A60234A17
:40014000224B1B78DBB23C218B43DBB214210B43DBB213701E4A1E4B1B78DBB216210B43DBB213701B4B03221A601B4B02221A601A4B06221A601A4B1A4A1A601A4BD8226F
:4001800012011A60FFF748FF00F0F6F8C046BD4602B080BD1C700F40E83400002C350000F434000000600F4002600F40000102400003024010500F400400990014500F4038
:4001C00018500F4070500F402000104001700F4000700F40000D04400C0D04400001044008010440B10300000803044010B5064C2378002B07D1054B002B02D0044800E0D9
:4002000000BF0123237010BD6001002000000000E4340000084B10B5002B03D00749084800E000BF07480368002B00D110BD064B002BFBD09847F9E700000000640100207F
:40024000E4340000C80000200000000090B593B000AF62B60121002000F030F900F0A8FA031E05D000F09AFA031E01D000F010FD00F094FA031EF1D000F0ACFD031EEDD002
:400280004623FC183B1D180000F0CCFD030023804623FB181B88002BE0D0C04600F0AEFD031EFBD04623FB181A883B1D1100180000F04EFD4623FB181B88402BCED1C04662
:4002C00000F09CFD031EFBD00021002000F040FDC4E7C04680B582B000AF786039603A687B680021180003F0F5F8C046BD4602B080BDC04680B586B000AF78603960002399
:400300003B6100237B612FE07B699B007A68D3181B68BB600F23FB18BA681A70BB68FF229343BB6018E03B695B003A68D3181B781A00BB68D31819003B695B003A68D3181F
:400340005B780B703B6901333B610F23FB181A780F23FB18013A1A700F23FB181B78002BE1D17B6901337B617B690D2BCCD9C046BD4606B080BDC04680B500AF054B032215
:400380001A60054B03221A60044B00221A60C046BD4680BD3000304030003140000E3F4080B500AF03F06AF803001B680C2B00D1FEE7FEE780B586B000AF224B7B61224B74
:4003C0003B61204B7B6135E03B691B68FB603B695B68BB603B699B683B6000237B600CE0FB681A68BB681A60BB680433BB60FB680433FB607B6804337B607A683B689A4293
:40040000EED13B69DB683B6000237B6008E0BB6800221A60BB680433BB607B6804337B607A683B689A42F2D13B6910333B617B69013B7B617B69002BC6D103F025F8FFF71D
:4004400005FFFEE701000000843B000080B582B000AF154B144A126801218A431A6000237B600FE07B68032B04D8104B7A689200D35800E00E4B0F4A796889008B507B688E
:4004800001337B607B682F2BECD9FFF7FFFD0A4B00221A60044B044A126801210A431A60C046BD4602B080BD0000104000000000A103000000000020C000002080B582B0F5
:4004C00000AF0200FB1D1A70BB1D0A1C1A700A4B1B78002B04D100F011F8074B01221A70BB1D1A78FB1D1B781100180000F07EF8C046BD4602B080BD7C010020B0B500AFF4
:400500002C4B01221A602C4B2B4A126820218A431A602A4B0A221A60294B2A4A1A60284B274A126828490A431A60254B244A126804218A431A60022002F086FE204B204A75
:40054000126808218A431A60204C02F079FC031E01D0022300E0002323601D4B1D4A1A601D4B07221A6003211E2002F0D1FD1B4B19001E2002F0A6FD03211F2002F0C8FD3F
:40058000174B19001F2002F09DFD0321002002F0BFFD144B1900002002F094FD0321052002F0B6FD104B1900052002F08BFDC046BD46B0BD74022C4048002C4030032C403C
:4005C00000202C40010000040C0000B824002C4030202C401A00150028202C40F91600002917000011170000651B000080B584B000AF0200FB1D1A70BB1D0A1C1A700F230A
:40060000FB1800221A700CE00F23FB181B78314A0121D1540F23FB181A780F23FB1801321A700F23FB181B78012BEDD92A4BFA1D12781A70294B00221A70294B00221A70F2
:40064000284B00221A70284B00221A70274B00221A70274B00221A70264B00221A701E2002F0AAFD002002F0A7FD1F2002F0A4FDBB1D1B78002B02D0012B07D00DE01E4BC3
:400680001D4A126801218A431A600DE01A4B1A4A126801210A431A6006E0174B164A126801210A431A60C046134B134A126804218A431A60114B00221A60114B01221A6034
:4006C000104B80221A60104B04221A60C046BD4604B080BD54020020B9010020BC010020D8010020DB010020D0010020DA010020DD010020B801002024002C40A4002C4009
:40070000A0002C4020002C4048002C4080B582B000AFFB1D00221A7009E0FB1D1B78154A0121D154FB1D1A78FB1D01321A70FB1D1B78012BF1D9104B00221A700F4B0022B6
:400740001A700F4B00221A700E4B00221A700E4B00221A700D4B00221A700D4B00221A700C4B01221A600C4B80221A60C046BD4602B080BD54020020BC010020D80100202C
:40078000DB010020D0010020DA010020DD010020B8010020A0002C4020002C4080B500AF024B1B78DBB21800BD4680BDDB01002080B582B000AFFB1D00221A70084B1B787D
:4007C000DBB2002B06D0FB1D054A12781A70044B00221A70FB1D1B781800BD4602B080BDD801002080B582B000AF0200FB1D1A70FB1D1A78064913005B009B189B00CB18F5
:4008000001331B78DBB21800BD4602B080BDC046E001002080B584B000AF0200FB1D1A700E23FB1800221A80FB1D1B78002B28D0FB1D1B78082B24D8154AFB1D1B789B0149
:400840009B589AB20E23FB180F210A401A800E23FB181B881B029BB21AB20D49FB1D1B789B01CB1804331B681BB213431AB20E23FB181A800E23FB180E22BA181288023AA1
:400880001A800E23FB181B881800BD4604B080BDF0FF2B40B0B584B000AF39601100FB1D021C1A703B1D0A1C1A80FB1D1B78002B00D18AE0FB1D1B78082B00D985E03B1D02
:4008C0001988FB1D1A78434813005B009B189B00C31806331B889BB21A0080239B009B1A99420FD9FB1D1A783A4913005B009B189B00CB1806331B889AB23B1D802189001C
:400900008A1A1A80344DFB1D19783B1D1B881B0A9BB2D8B2FB1D1A782E4C13005B009B189B00E31803331B78DBB20343DBB21A008B015A512849FB1D1B783A1D1288D2B272
:400940009B01CB1804331A603B68002B1FD00E23FB1800221A8013E02048FB1D1B780E22BA18128839688A1812789B01C31820331A600E23FB180E22BA18128801321A802A
:400980000E23FA183B1D12881B889A42E4D3FB1D1A78104913005B009B189B00CB18013300221A700C4CFB1D1978FB1D1A78094813005B009B189B00C31805331B78DBB25F
:4009C0001A008B01E31808331A60C046BD4604B0B0BDC046E0010020F0FF2B40C0012C4080B584B000AF39601100FB1D021C1A703B1D0A1C1A803B68002B45D0FB1D1B78C1
:400A0000002B41D0FB1D1B78082B3DD8FB1D1B781800FFF7FFFE03001A003B1D1B88934207D9FB1D1B781800FFF7F4FE03001A0001E03B1D1A883B1D1A800E23FB18002209
:400A40001A8014E00E23FB181B883A68D2181349FB1D1B789B01CB1820331B68DBB213700E23FB180E22BA18128801321A800E23FA183B1D12881B889A42E3D3FB1D1B7847
:400A8000180000F00DF802E03B1D00221A803B1D1B881800BD4604B080BDC046C0012C4090B583B000AF0200FB1D1A70FB1D1B78002B21D0FB1D1B78082B1DD8FB1D1A78EA
:400AC0000F4913005B009B189B00CB18013300221A700C4CFB1D1978FB1D1A78084813005B009B189B00C31805331B78DBB21A008B01E31808331A60C046BD4603B090BDD6
:400B0000E0010020F0FF2B4090B583B000AFFB1D00221A70354B1B69DBB2BC1D180000F06FF803002370314B1B688022134016D02E4B5B68212B00D051E02D4B07221A8062
:400B4000BB1D1A781300DB009B1A2A4A9A18284B5A60FC1D00F074FB030023703FE0234B5B68202B02D0222B1ED038E0204B07221A80BB1D1A781300DB009B1A1D4A9A18F3
:400B80001B4B5A60BB1D1B78BA1D12781A498A5CD2B201210A43D1B2174AD154FC1D00F0D3FB030023701AE0BB1D1A780F4B9B68DBB299B2114B5200D152BB1D1B78BA1DEB
:400BC00012780D498A5CD2B202210A43D1B20A4AD154FC1D00F05CFC03002370C046FB1D1B781800BD4603B090BDC04600002C40C4010020CC000020A0010020B4010020A3
:400C000080B584B000AF0200FB1D1A700F23FB1800221A700E23FB18FF221A7028E00F23FB181A780D23FB1817498A5C1A700D23FB181A78154913005B009B189B00CB1854
:400C40000A331B78DBB2FA1D12789A4209D10E23FB180F22BA1812781A700F23FB1802221A700F23FB181A780F23FB1801321A700F23FB181B78012BD1D90E23FB181B7814
:400C80001800BD4604B080BDA8010020E001002080B582B000AFBB1D00221A70274B00221A70274B00221A70254B00225A70FB1D00221A7017E0FB1D1A787B1D21498A5CDF
:400CC0001A707B1D1B78002B08D07B1D1B78082B04D87B1D1B781800FFF7E2FEFB1D1A78FB1D01321A70FB1D1B78012BE3D9164B1B78DBB2002B18D0124B1B78DBB2002B9B
:400D000013D0124B1B78DBB2002B0ED00E4B1B78DBB2082B09D80B4B1B78DBB2082B04D80A4B1B78DBB2082B02D9BB1D01221A70BB1D1B781800BD4602B080BD7D0100201D
:400D4000A0010020AC010020A4010020A801002080B584B000AF78600A00BB1C1A801A4B1B7819000F23FB18184A525C1A700F23FB181A78164913005B009B189B00CB1827
:400D800008331B889BB2BA1C12889A420FD90F23FB181A78B91C0E4813005B009B189B00C31808331B880B80002002F01BFABB1C1A8879680F23FB181B781800FFF76AFD04
:400DC000C046BD4604B080BD7D010020A4010020E001002080B500AF064B1B781A00064B9B5CDBB21800FFF7FDFC03001800BD4680BDC0467D010020AC01002080B500AF27
:400E0000064B1B781A00064B9B5CDBB21800FFF7E9FC03001800BD4680BDC0467D010020A401002090B585B000AF7860124B1B7819000F23FB18114A525C1A700F23FB1801
:400E40001A780F4913005B009B189B00CB1808331B889AB20C23FC1879680F23FB181B781800FFF7BDFD030023800C23FB181B881800BD4605B090BD7D010020AC010020E8
:400E8000E001002080B584B000AF786008001100FB1C021C1A70BB1C0A1C1A707B68DA780F23FB1803210A401A707B689B785BB2002B25DA0F23FB181B78032B0ED0BB1C88
:400EC0001B78012213401C4AF91C0978D154BB1CBA1C127801210A431A7027E0BB1C1B789B08DBB21A0001231340144AF91C0978D154BB1CBA1C127804210A431A7015E025
:400F00000F23FB181B78032B10D0BB1C1B785B08DBB21A0001231340094AF91C0978D154BB1CBA1C127802210A431A70BB1C1B781800BD4604B080BDA4010020A80100209D
:400F4000AC01002080B582B000AF374B1B683B603B681022134060D001237B603B688022134012D03B680F221340012B02D000237B601AE000F064F82C4B1B78DBB25BB210
:400F8000002B12DA00237B600FE03B684022134002D000F0A3F808E03B682022134002D000F0BCF801E000237B607B68002B34D01D4B1B683B603B68802213402DD11C4B6E
:400FC0001B78DAB21B4B1B78DBB21343DBB23B60194B3A681A60184B1A683B689A421CD1124B1B78DBB27B600F4B1B68802213403B603B68002B09D10B4B0C4A1278D2B2D6
:401000001A60094B1B680F2213407B60074B1B78DBB21A007B689A42E2D1084B04221A60C046BD4602B080BDA0002C40D90100204E020020DC010020A4002C4020202C40E8
:4010400090B583B000AF224B1A68FB1D1A70204BFA1D12781A601E4B1A68FB1D1A70FB1D1B785BB2002B04DA1A4BFA1D12781A7029E0022000F04EFA174B1B686022134037
:40108000202B09D0402B0DD0002B11D1FC1D00F071FD030023700FE0FC1D02F069F90300237009E0FC1D01F07DFD0300237003E0FB1D00221A70C046FB1D1B78002B02D15F
:4010C000044B03221A70C046BD4603B090BDC046A0002C40D901002000002C4080B500AF0D4B1B78DBB2022B08D002DC002B0ED00EE0042B05D0062B06D009E000F0FAF865
:4011000006E000F0B3F903E000F0DCF900E0C046C046BD4680BDC046BC01002080B500AF0F4B1B78DBB2022B08D002DC002B12D012E0042B05D0062B06D00DE000F0E2F874
:401140000AE000F037F907E0032000F0E3F9054B03221A7000E0C046C046BD4680BDC046BC010020D901002080B582B000AF00237B602B4B1B78DBB29AB22A4B1B889BB22C
:40118000D3189AB2274B1A8017E0274A274B5B681B78DBB219007B689B009950234B5B685A1C224B5A607B6801337B601F4B1B889BB2013B9AB21D4B1A801C4B1B889BB2B4
:4011C000002B02D07B68072BDFD9154B1B78DBB2082B02D07B68002B0FD0154B1B78DBB2802252425340DAB2114B1A70114B0F221A70114B02221A7005E00E4B02221A70EB
:401200000D4B02221A707B68DAB20C4B1A707B68DAB2034B1A70C046BD4602B080BDC046B8010020BA01002000002C40C40100204E020020D9010020BC010020DC010020CA
:4012400080B582B000AF174B1B889BB2002B02D100F030F821E0144B02221A70134B00221A7000F077F9124BDB699BB21B029BB21AB20F4B9B691BB213431AB2BB1D1A8095
:40128000084B1B889BB2BA1D12889A4203D2054BBA1D12881A80FFF767FF01231800BD4602B080BDC4010020BC0100204E02002000002C4080B500AF094B02221A70094B0C
:4012C00080221A70084B0F221A70084B00221A70074B00221A7001231800BD4680BDC046BC0100204E020020D9010020B8010020DC01002080B500AFFFF736FFC046BD4600
:4013000080BDC04680B500AF0B4B1B78DBB29AB20A4B1B889BB2D3189AB2084B1A80084B00221A70012000F0F5F8064B03221A70C046BD4680BDC046B8010020BA0100205E
:40134000BC010020D901002080B582B000AF144B04221A70134B80221A7000F0FBF8124BDB699BB21B029BB21AB20F4B9B691BB213431AB2BB1D1A800C4B1B889BB2BA1D03
:4013800012889A4203D2094BBA1D12881A80084B0B221A7001231800BD4602B080BDC046BC0100204E02002000002C40C4010020D901002080B582B000AF00233B60244B6A
:4013C0001B680F221340023B7B607B689BB2FF2213409AB21F4B1B889BB2D3189AB21D4B1A8019E01C4B5B681C493A6892005258D2B21A70184B5B685A1C174B5A603B687C
:4014000001333B607B68013B7B60134B1B889BB2013B9AB2104B1A800F4B1B889BB2002B02D07B68002BDDD17B68DAB20C4B1A700C4B1B78DBB2802252425340DAB2094BA5
:401440001A70094B0B221A70C046BD4602B080BDA4002C40BA010020C401002000002C40DC0100204E020020D901002080B500AF054B00221A70012000F04CF8034B032294
:401480001A70C046BD4680BDBC010020D901002080B500AF074B06221A70074B06221A70064B80221A70064B00221A7001231800BD4680BDBC010020D90100204E0200205C
:4014C000DC01002080B500AF0E4B1B78DBB2002B0BD00D4B0B4A1278D2B2802149420A43D2B21A60074B00221A70084B00221A70012000F00FF8064B03221A70C046BD463C
:4015000080BDC046DA01002020002C40BC010020D901002080B582B000AF0200FB1D1A700A4B9B68002B0DD0084B9B68FA1D12781A70064B9B68064A128892B25A80034BC5
:4015400000229A60C046BD4602B080BDC4010020BA01002080B500AF084B00221A80084B9B68002B07D0064B9B6800221A70044B9B6800225A80C046BD4680BDBA010020DD
:40158000C401002080B500AF0D4B01221A600D4B9B6C0D4B1B7BDBB21A0003231340012B08D0094BDB7BDBB2802252425340DAB2054BDA73044B01225A73C046BD4680BD4E
:4015C0002C002C40F0FF2B40E001002080B500AF0E4B02221A600E4A8823D3580D4B1B7EDBB21A0003231340012B08D0094BDB7EDBB2802252425340DAB2064BDA76054B5A
:4016000001225A76C046BD4680BDC0462C002C40F0FF2B40E001002080B500AF104B04221A60104AC823D3580F4B24229B5CDBB21A0003231340012B0AD00B4B27229B5CD6
:40164000DBB2802252425340D9B2074B27229954054B252201219954C046BD4680BDC0462C002C40F0FF2B40E001002080B500AF024B01221A60C046BD4680BD20202C405C
:4016800080B500AF034B02221A60FFF73FF8C046BD4680BD20202C4080B584B000AF78600023FB607B688022134002D0114B1B6998477B680F221A407B68D908FF235B01B4
:4016C0000B4013437B600EE07B680122134004D0084BFA689200D35898477B685B087B60FB680133FB607B68002BEDD1C046BD4604B080BDC838000080B500AF034B1B6874
:401700001800FFF7C9FFC046BD4680BD34202C4080B500AF034B1B681800FFF7BDFFC046BD4680BD38202C4080B500AF034B1B681800FFF7B1FFC046BD4680BD3C202C40C3
:4017400090B583B000AFFB1D00221A70754B1A69BB1D1A70734B1B688022134000D16CE0704B5B68022B3BD002D8012B2AD0D3E0032B4ED0062B00D0CEE06A4BDB68212BDE
:401780000DD100F0D9F8684B1B889BB2002B00D1B5E0FC1DFFF754FD03002370AFE0614BDB68222B00D0AAE000F00CF95E4B1B889BB2002B00D1A2E0FC1DFFF741FD0300DF
:4017C00023709CE000F04EF9574B1B889BB2002B00D196E0FC1DFFF733FD0300237090E0BB1D1B78012B00D98DE04E4B9B68002B00D088E04C4B01221A80BB1D1A784B4B2A
:40180000D218494B5A60FC1DFFF71AFD0300237079E0BB1D1B78012B00D976E0424B01221A80BB1D1A78424BD2183F4B5A60FC1DFFF706FD0300237067E03A4B5B680A2BBA
:4018400011D00B2B46D0092B00D065E000F00AF9354B1B889BB2002B59D0FC1DFFF774FD0300237053E0BB1D1B78012B51D82D4B9B68002B4DD1BB1D1A782A4BDB68D9B2C1
:401880002A4B9954BB1D1B78284AD35CDAB2BB1D1B782849CB5CDBB29A4205D2BB1D1B78244A0021D1540FE0BB1D1B78214AD35CDBB2012B08D9BB1D1B78BA1D12781B490E
:4018C0008A5CD1B21B4AD154FC1DFFF7E1FD030023701EE0BB1D1B78012B1CD8114B9B68012B18D8BB1D1A780E4B9B68D9B2104B9954FC1DFFF7CCFD030023700BE0C04676
:401900000AE0C04608E0C04606E0C04604E0C04602E0C04600E0C046FB1D1B781800BD4603B090BD00002C40C40100205C020020540200205802002080B584B000AF1D4B20
:401940001B78DBB2013BDBB2180000F059FF0300FB60194B1A690B23FB181A700B23FB181B780233DB00FA68D318FB60FB685B68FB600B23FB181B78104AD35CDBB2DB003C
:40198000FA68D318FB60FB685B68FB60FB682033FB60FB685B687B607B681B78DBB29AB2074B1A80064B7A685A60C046BD4604B080BDC046DB01002000002C404C020020EE
:4019C000C401002080B584B000AF224B1B78DBB2013BDBB2180000F013FF0300FB601E4B1A690B23FB181A700B23FB181B780233DB00FA68D318FB60FB685B68FB600B232A
:401A0000FB181B78154AD35CDBB2DB00FA68D318FB60FB685B68FB60FB681833FB60FB685B687B607B6801331B78DBB29BB21B029AB27B681B78DBB29BB213439AB2084BA5
:401A40001A807B689A1C064B5A60C046BD4604B080BDC046DB01002000002C404C020020C401002080B584B000AF394B00221A80384B1B78DBB2013BDBB2180000F0C0FEE3
:401A80000300FB60344BDA680B23FB181A70324B1A690A23FB181A700A23FB181B780233DB00FA68D318FB60FB685B68FB600A23FB181B78012B46D80A23FB181B78274A05
:401AC000D35CDBB2DB00FA68D318FB60FB685B68FB600B23FB181B78002B34D00B23FB181B78032B2FD80B23FB181B781C4A94466344DB00FA68D318FB60174B9A680B234A
:401B0000FB181A70FB681B780B22BA1812789A4219D8FB685B687B600B23FB181A7813005B009B189B001A007B689B187B607B685A68074B5A607B681A88054B1A807B689E
:401B40009A68034B9A60C046BD4604B080BDC046C4010020DB01002000002C404C020020FFFFFF1F80B500AF01F046F8C046BD4680BDC04690B589B000AF1F23FB18002241
:401B80001A70D44B1B68FB600023BB61D24B00221A80FB688022134000D107E1CD4B5B68062B0BD003D8002B00D1A6E01EE2082B00D1DEE00A2B00D1E8E017E2C54BDB6855
:401BC000012B11D100F048FE03003B613B695A68C14B5A60C04B12221A801F23FC18FFF72FFB03002370FAE1BA4BDB68022B28D1B84B9B68DBB2180000F002FE03003B616E
:401C00003B69002B00D1EAE13B695A68B24B5A60B14B5B6803331B78DBB29BB21B029AB2AD4B5B6802331B78DBB29BB213439AB2A94B1A801F23FC18FFF702FB03002370E5
:401C4000CDE1A44BDB68032B50D11723FB1800221A70A24BBB6111E00B23FB18BA6912781A700B23FB181B78BA69D318BB611723FB181A781723FB1801321A70954B9A6801
:401C80001723FB181B789A4204D9BB691B78DBB2002BE1D18F4B9B68EE2B01D1904BBB618C4B9B68002B0BD08A4B9B688D4A127C934205D18C4B180000F0A6F98A4BBB6174
:401CC000BB691B78DBB2002B00D188E1BB691B78DBB29AB2804B1A807F4BBA695A601F23FC18FFF7ADFA0300237078E11F23FC1801F03EFB0300237071E1FB68032213407A
:401D000021D0022B00D033E0734B02221A80714B1B697F221A40754913005B009B189B00CB1802331B78DAB2714B1A70704B00225A70694B6E4A5A601F23FC18FFF780FA61
:401D40000300237014E0644B02221A80694B1B78DAB2674B1A70664B00225A705E4B644A5A601F23FC18FFF76BFA03002370C0463CE1594B01221A80574B5F4A5A601F239D
:401D8000FC18FFF75DFA030023702FE1524B01221A80504B1A69594BD2184F4B5A601F23FC18FFF74DFA030023701FE1494B5B680B2B00D915E19A00514BD3181B689F46B4
:401DC000444B9B68DAB24F4B1A701F23FC18FFF75FFB0300237009E13E4B9B687B607B68002B08D07B68DBB2013BDBB2180000F007FD03003B617B68002B02D03B69002B9B
:401E000003D17B68002B00D0EDE03B4B1B78DBB21A007B689A4209D07B68DAB2364B1A70394B01221A70012000F0BCF91F23FC18FFF72EFB03002370D5E000F065FE031E26
:401E400000D1D2E0234B1B693B60224B1B69DAB22E4B1A702E4A3B68D3181B78DAB227493B68CB181B78DBB29A4204D0264B01221A7000F0B5FB1F23FC18FFF709FB0300D6
:401E80002370B2E0FB6803221340012B42D00DD3022B00D05CE00F4B9B68002B53D11F23FC1800F08BFD030023704CE0094B9B68012B4AD10F4B1B78DBB202229343DAB2F1
:401EC0000C4B1A701F23FC18FFF7E2FA030023703BE0C04600002C40C4010020E0390000203B00008839000060020020E001002080010020DD010020DB0100204C02002010
:401F0000FC380000DA010020D8010020D0010020C0010020394B1B69012B18D8374B9B68DBB2DB43D9B2354B1B69354AD25CD2B20A40D1B2324AD1541F23FC18FFF7A8FA37
:401F40000300237003E0C04650E0C0464EE0C0464CE0FB6803221340012B21D00DD3022B00D03BE0254B9B68002B32D11F23FC1800F0AEFC030023702BE0204B9B68012B90
:401F800029D1204B1B78DBB202221343DAB21D4B1A701F23FC18FFF77BFA030023701AE0164B1B69012B18D8144B9B68DBB2DB43D9B2124B1B69124AD25CD2B20A40D1B2FE
:401FC0000F4AD1541F23FC18FFF762FA0300237003E0C0460AE0C04608E0C04606E0C04604E0C04602E0C04600E0C0461F23FB181B781800BD4609B090BDC04600002C403F
:4020000050020020DD01002090B58DB000AF78601423FB18294A13CA13C31168196012791A710023BB627B68002B42D07B6822221A707B68013303221A700C23FB1818007E
:4020400001F016F90223FB6230E07A68FB6AD3180C22B918BA6A8A1812781209D2B211001422BA18525C1A70FB6A01337A68D31800221A70FB6A02337A68D3180C22B918E5
:40208000BA6A8A18127811000F220A40142179188A5C1A70FB6A03337A68D31800221A70BB6A0133BB62FB6A0433FB62FB6A212BCBD9C046BD460DB090BDC0462C390000B8
:4020C00080B582B000AF01237B6057E0304A7B689B010C2199502F497A6813005B009B189B00CB1805331B78DBB2002B1CD029497A6813005B009B189B00CB1804331B7860
:40210000DBB25BB2002B07DA234A7B689B01D31808330C221A600EE01F4A7B689B01D318083308221A6006E01B4A7B689B01D318083380221A60194816497A6813005B0083
:402140009B189B00CB1806331B889BB21A007B689B01C31808331A6010480E497A6813005B009B189B00CB1806331B889BB21A007B689B011A507B6801337B607B68082B78
:40218000A4D9074BFF221A60C046BD4602B080BDC0012C40E0010020F0FF2B40D0112C4028002C4090B58BB000AF0200FB1D1A702223FB1800221A802723FB1800221A7064
:4021C00058E02723FB181A78E44913005B009B189B0000225A542723FB181A78DF4913005B009B189B00CB18023300221A702723FB181A78D94913005B009B189B00CB18B8
:40220000033300221A702723FB181A78D34913005B009B189B00CB18083300221A802723FB181A78CD4913005B009B189B00CB180A3300221A702723FB181A78C74913007C
:402240005B009B189B00CB18013300221A702723FB181A78C14913005B009B189B00CB18053300221A702723FB182722BA18127801321A702723FB181B78082BA1D9FB1D02
:402280001B78002B1CD02523FB1800221A7012E02523FB181B78B24A0021D1542523FB181B78B04A0021D1542523FB182522BA18127801321A702523FB181B78012BE7D988
:4022C000A94B1B78DBB2002B00D182E11B23FB1800221A70A44B1B78DBB2013BDBB2180000F08EFA03007B617B695B683B613B6907331B781A004023134008D09B4B1B7852
:40230000DBB201221343DAB2984B1A7007E0974B1B78DBB201229343DAB2944B1A707B6908337B612723FB187A6912781A702523FB1801221A70D2E07B695B68FB61262372
:40234000FB1800221A70BAE02523FB181A78FB699B7819007F230B409A4200D0A5E02523FB181A787D4913005B009B189B00CB1808331B889AB2FB699B889A420DD2252363
:40238000FB181A78FB699888744913005B009B189B00CB180833021C1A80FB691B781A006F4B9B5CDAB2FB695B789A4200D07CE02523FB181A78FB699878684913005B0098
:4023C0009B189B00CB180433021C1A702523FB181A78FB69D878614913005B009B189B00021C5A54FB69DA780F23FB1803210A401A70FB699B785BB2002B20DA2523FB1803
:402400001A780F23FB181B78012B01D1072000E00D20524913005B009B189B00CB180533021C1A702523FB181A784C4913005B009B189B00CB18013301221A701FE025239D
:40244000FB181A780F23FB181B78012B01D1052000E00920414913005B009B189B00CB180533021C1A702523FB181A783B4913005B009B189B00CB18013300221A70FB6956
:402480009B790A2B03D0FB699B79022B0DD11B23FC181B23FB181A782523FB181978FB691800FEF7EFFC03002370FB690833FB612623FB182622BA18127801321A70262369
:4024C000FA182723FB1812781B789A4200D23BE72523FB182522BA18127801321A702523FB181B78082B00D826E77B695B68FB612523FB1800221A7019E0FB699B781A002B
:402500007F231A40FB691878144913005B009B189B00CB180A33021C1A70FB690833FB612523FB181A782523FB1801321A702523FA182723FB1812781B789A42DDD300F07A
:402540009DF902000A4B1A602223FB1800221A802723FB1801221A7034E0C046E00100204C020020C0010020DB010020DD010020D40100202723FB181A78184913005B00BF
:402580009B189B00CB1806332222BA1812881A802723FB181A78114913005B009B189B00CB1808331B8899B22223FB182222BA1812888A181A802723FB182722BA18127810
:4025C00001321A702723FB181B78082BD2D9FFF777FDC046BD460BB090BDC046E001002080B588B000AF804B1B78DBB2002B00D1F5E07D4B1B78DBB2013BDBB2180000F03D
:40260000FFF803007B617B6908337B617B691B783B617B695B68BB610F23FB18734A12781A700023FB61D5E0BB691B780F22BA1812789A4200D0C7E00F23FB181B786C4A84
:40264000D35CDAB2BB695B789A4200D0BCE0BB699B781A007F231340BB60BB69DB781A00032313407B606349BA6813005B009B189B00CB18033300221A70BB6998785D49F1
:40268000BA6813005B009B189B00CB180433021C1A70BB69D8785749BA6813005B009B189B00021C5A54BB6998885249BA6813005B009B189B00CB180833021C1A80BB6905
:4026C0009B785BB2002B1ADA7B68012B01D1072000E00D204749BA6813005B009B189B00CB180533021C1A704249BA6813005B009B189B00CB18013301221A7019E07B684C
:40270000012B01D1052000E009203A49BA6813005B009B189B00CB180533021C1A703549BA6813005B009B189B00CB18013300221A70314ABB689B01D318083301221A602D
:402740002D482C49BA6813005B009B189B00CB1808331B889BB21B0A9BB2DBB21A00BB689B011A5024482349BA6813005B009B189B00CB1808331B889BB2DBB21A00BB68B3
:402780009B01C31804331A601C481A49BA6813005B009B189B00CB1806331B889BB21A00BB689B01C31808331A6014481149BA6813005B009B189B00CB1806331B889BB237
:4027C0001A00BB689B011A50BB690833BB61FB690133FB61FA693B699A4200D224E7C046BD4608B080BDC046DB010020D00100204C020020E0010020F0FF2B40D0112C4060
:4028000080B584B000AF0200FB1D1A70104B1B78DBB2104ADB00D31804331B68FB60FB681033FB60FB681B78FA1D12789A4202D30023FB6006E0FB1D1B78DB00FA68D318AC
:402840005B68FB60FB681800BD4604B080BDC046B9010020183B000080B500AF054B1B78DBB2054ADB00D31804331B681800BD4680BDC046B9010020183B000080B584B081
:4028800000AF124B1B78DBB2013BDBB21800FFF7B7FF0300BB60BB68002B0FD0BB685A68FB1D12791A70FB1D1B780233DB00BA68D318BB60BB685B68FB6001E00023FB607F
:4028C000FB681800BD4604B080BDC046DB01002090B583B000AFFB1D00221A70344B1B697F2213403B603B68002B5BD03B68082B58D830493A6813005B009B189B00CB1831
:4029000002331B78DBB201221343D8B229493A6813005B009B189B00CB180233021C1A7024493A6813005B009B189B00CB18033300221A701F493A6813005B009B189B0059
:40294000CB1801331B78DBB202221343D8B219493A6813005B009B189B00CB180133021C1A7014493A6813005B009B189B00CB1804331B78DBB25BB2002B07DA0E4A3B6894
:402980009B01D31808338D221A6006E00A4A3B689B01D318083389221A60FC1DFEF778FD03002370FB1D1B781800BD4603B090BD00002C40E0010020F0FF2B4090B583B04A
:4029C00000AFFB1D00221A704C4B1B697F2213403B603B68002B00D18AE03B68082B00D986E047493A6813005B009B189B00CB1802331B78DBB201229343D8B240493A68C8
:402A000013005B009B189B00CB180233021C1A703B493A6813005B009B189B00CB18033300221A7037493B689B01812252425A5033493A6813005B009B189B00CB180133E2
:402A40001B78DBB202229343D8B22D493A6813005B009B189B00CB180133021C1A7028493A6813005B009B189B00CB1804331B78DBB25BB2002B1BDA21493A6813005B006F
:402A80009B189B00CB1801331B78DBB2012B07D11C4A3B689B01D31808330C221A6022E0184A3B689B01D31808330D221A601AE013493A6813005B009B189B00CB180133DD
:402AC0001B78DBB2012B07D10E4A3B689B01D318083308221A6006E00A4A3B689B01D318083309221A60FC1DFEF7D2FC03002370FB1D1B781800BD4603B090BD00002C4069
:402B0000E0010020F0FF2B4080B584B000AF0F23FB1800221A701F4B1A690E23FB181A701D4B1B78DBB2013BDBB21800FFF768FE0300BB60BB685A68FB1D12791A700E2350
:402B4000FA18FB1D12781B789A4204D90E23FB181B78022B16D80E23FB181B780E22BA1812780E498A5CD1B20D4AD1540E23FB181A78084B9B68D9B2084B99540F23FB1888
:402B800001221A700F23FB181B781800BD4604B080BDC04600002C40DB0100204C020020C001002090B583B000AFFB1D00221A700E4B1B688022134012D00C4B5B68012BE3
:402BC00000D00DE00A4B0B4A5A600A4B1B789AB2074B1A80FC1DFEF733FB03002370C046FB1D1B781800BD4603B090BD00002C40C4010020343B000080B582B000AF084BCD
:402C00001B68DAB2FB1D01210A401A70044BFA1D12781A60FB1D1B781800BD4602B080BD100D044090B587B000AF0023BB6000F07FFB031E00D184E0FC1D00F092FB030035
:402C40002370424B414A126801210A431A6003233B6100237B6111E03D4B1B681A003F2313403C497A698A181278934203D17B6903333B6105E07B6901337B617B692D2BB2
:402C8000EAD9354B1B681F22134007D1324B324A12681F218A430C210A431A602F4B1B682F4A1340FB603B692E4A53438022D20194466344DB0B013B5B055B0DFA68134300
:402CC000FB60FB68A02252031343FB603B69192B05D8FB68FF2292051343FB6016E03B69214A944663441B78DBB219003B691A3B1E4AD35CCB18BB60BB68FF2B00D9FF2328
:402D0000BB60BB689B05FA681343FB60134BFA681A60174B1B683B60302000F073FB154B144A12688021C9050A431A60142000F065FA0F4B3A681A60FB1D1B78180000F020
:402D400014FBC046BD4607B090BDC04650000C402CFF0B404039000034FF0B400800224000F800C040420F004DF3FF0F70390000300010400000224080B500AF044B044A1B
:402D8000126804490A401A60C046BD4680BDC04600002240FFFFFFBF80B500AF054B1A688023DB05134001D0012300E000231800BD4680BD0000224080B500AF0E4B0E4A4B
:402DC000126801218A431A600C4B1B681F2293431A000B4B1A60094B084A12681F218A4308210A431A60074B064A126802210A431A60C046BD4680BD50000C4034FF0B4092
:402E00009C01002024002C4080B500AF094B094A126802218A431A60074A074B1B681F218B431900054B1B680B431360C046BD4680BDC04624002C4034FF0B409C010020DE
:402E400080B500AF054B1B680222134001D0012300E000231800BD4680BDC04624002C4090B587B000AF786000233B610023FB600B23FC1800F075FA03002370FFF78CFF46
:402E8000031E03D001233B61FFF776FF7B68182B02D07B68302B03D10123FB60FFF7B4FF7B68022B00D8CBE07B68302B00D9C7E06F4B1B78DBB21A007B689A420AD36D4A29
:402EC0001723FB1812781A706B4A1623FB1812781A703FE0694B1B78DBB21A007B689A420AD3674A1723FB1812781A70654A1623FB1812781A702DE0634B1B78DBB21A009D
:402F00007B689A420AD3614A1723FB1812781A705F4A1623FB1812781A701BE05D4B1B78DBB21A007B689A420AD35B4A1723FB1812781A70594A1623FB1812781A7009E075
:402F4000574A1723FB1812781A70564A1623FB1812781A707B68DA1E0A23FB1852498A5C1A700A23FB181B782F2B0DD97B682A2B0AD94E4B19221A60052000F0E9F915237E
:402F8000FB1819221A7007E0484B1B68DAB21523FB183F210A401A700A23FA181523FB1812781B789A4208D2404B7A68033A3E498A5C1A60052000F0CBF9FB68012B08D102
:402FC0007B68302B05D13A4A1423FB1812781A7012E0FB68012B08D17B68182B05D1354A1423FB1812781A7006E07B682D4A9A181423FB1812781A702F4B1422BA1812784C
:403000001A602E4B1722BA1812781A602C4B1622BA1812781A60052000F016F90A23FA181523FB1812781B789A420CD91F4B7A68033A1D498A5C1A60052000F089F902E0B5
:40304000002000F0CFF83B69012B01D1FFF7EAFDFB68012B01D1FFF7AFFE0B23FB181B78180000F082F9C046BD4607B090BDC04640F3FF0F41F3FF0F42F3FF0F43F3FF0F82
:4030800044F3FF0F45F3FF0F46F3FF0F47F3FF0F48F3FF0F49F3FF0F4AF3FF0F4BF3FF0F4CF3FF0F4DF3FF0F403900002CFF0B403FF3FF0F3EF3FF0F28FF0B401CFF0B40EB
:4030C00020FF0B4080B584B000AF02003960FB1D1A7080239B05FB60FB1D1B781F2B02D9002000F07FF8FB1D1B7810339B00FA68D3181B68BB60FB1D1B7810339B00FA68BD
:40310000D3183A681A60BB681800BD4604B080BD90B587B000AF0200FB1D1A70BB1D0A1C1A70BB1D1B78032B02D9002000F05AF8FB1D1B781F2B02D9002000F053F8FB1DE9
:403140001B7803221340DB0006337B611323FC1800F007F903002370FB1D1B789B08DBB29B00144A944663441B68FB6003227B699A401300DA43FB681340FB60BB1D1A78C3
:403180007B699A401300FA681343FB60FB1D1B789B08DBB29B00074A94466344FA681A601323FB181B78180000F0DFF8C046BD4607B090BD00E400E080B582B000AF020063
:4031C000FB1D1A70064BFA1D12781F210A40012191400A001A60C046BD4602B080BDC04600E100E080B582B000AF0200FB1D1A7001BEC046BD4602B080BDC04680B582B09D
:4032000000AF786009E00D4B1B68180000F0A0F87B680B4A944663447B607A6880231B029A42F0D8074B1B687A685343180000F08FF8C046BD4602B080BDC046F4000020DB
:403240000080FFFFEC00002080B582B000AF0200BB1D1A80BB1D1B88044A12785343180000F076F8C046BD4602B080BDF000002080B582B000AF7860254B1B78DBB21A003B
:403280007B681A60234B1B78DBB21A027B681B681A437B681A60204B1B78DBB21A047B681B681A437B681A601C4B1B78DBB21A067B681B681A437B681A607B680433184ADB
:4032C0001278D2B21A60174B1B78DBB219027B6804337A68043212680A431A60124B1B78DBB219047B6804337A68043212680A431A600E4B1B78DBB219067B6804337A6895
:40330000043212680A431A60C046BD4602B080BD78F2FF0F79F2FF0F7AF2FF0F7BF2FF0F7CF2FF0F7DF2FF0F7EF2FF0F7FF2FF0F80B500AF044B1B68002B01DA012300E082
:4033400000231800BD4680BD00002240000000000230800803D00138FDD1C046C046C0467047EFF3108072B6704780F31088704790B583B000AF204B1B6803221340012B47
:4033800002D0022B05D013E01B4B1A69BB1D1A7012E0194B1B697F221A40B91D174813005B009B189B00C3180A331B780B7003E0BB1D00221A70C046114B1A68BB1D1B7859
:4033C000D3181B78022B07D0032B0BD1FC1DFEF7B7F90300237009E0FC1DFDF795FB0300237003E0FB1D00221A70C046FB1D1B781800BD4603B090BD00002C40E0010020F1
:40340000D401002090B585B000AF78600F23FC18FFF7A7FF030023707B68102B06D8164B154A126803218A431A601AE07B68202B08D8114B104A126803218A4301210A43E5
:403440001A600EE07B68302B08D80B4B0A4A126803218A4302210A431A6002E00020FFF7C1FE0F23FB181B781800FFF77EFFC046BD4605B090BDC04630001040014B186850
:403480007047C0465C0100200E4B70B500251E000D4CE41AA410A54204D0AB00F35898470135F8E700F05CFB084B00251E00084CE41AA410A54204D0AB00F35898470135B8
:4034C000F8E770BD6C3B00006C3B00006C3B0000743B000003008218934202D019700133FAE770470000000000300F40000800400F40000803000F4047300F4033310F409A
:4035000054320F4045330F4051340F4043350F4006370F4002400F400B410F4007420F4003430F4004470F4003600F4081728238840F06010C010D01100111011501160171
:4035400019013401370138203F40580459045F0180018108840C85048801890C8C088D01900E910F940C950C96029703980C99109A029D039F0CA202A303A401A50FA8043D
:40358000A903AC02AD02AE0CB10FB201B40EB710BA20BB02BF40C002C704C9FFCA07CBFFCC40CD20CEF0CF05D008D602D713D804D904DA04DB04DF01E040E1A8E240E3207D
:4035C0000040032004220622090A0A080B080D0A0E0814401540160817041B101D101E081F2423012440268027402C442E802F20311A32083301352036083741384039405B
:403600003E2A3F404710551056045F016C116F04762A84408604C0F5C27CC4F0CAF0CCF7CEF8D020D680011005080610080309180D40100111E7120A1318160417E31802F4
:40364000199C1A091B621DFF1E1021242403251C27E129602F0431603210331F34033598360C3B083E44405641044203440145C0460E480649FF4AFF4BFF4C624DA04EF04A
:403680004F41500C5418580459045A045B045F016640670269106A306B106D106E106F12842C86118A038C308E0C9009921098409C1C9E22A414A701A810AF01B060B41F63
:4036C000B501B802BB02BF10D804D904DF01000401200301042809100A420C040E240F4210201204170419201A401D801E041F042102230424082508260127282A402B1054
:403700002C042D022F223440360A37203EAA4440458247084D404E0E4F0256405E02654067048540870490209140920897409A2E9B049C049D209E809F10A110A330A50A06
:40374000B280C067C2FBC426CAFACCF0CEF0D0D0D230D680D830EA800001020604010501060E0B010C0C0E03120C17011A031D0124102A082F013410360F37013A803E1074
:403780003F4040134102450E46B0470C481949FF4AFF4BFF4EF04F44500C5401580459045A045B045F0166C06A406B0280208208860388388B2D8C068E0191039206930874
:4037C0009408963098109A489D639F1CA205A310A438A563A70CA903AA02AB04AD52AE01AF0CB040B238B360B407B71FB908BA20BB80BF04D804D904DF010004018002800A
:4038000004240580068009100A400B800C100E60122415801604170519801A061C041E201F1222402680271129802C082DA02F503008328033403682380439103D303E10D6
:403840004004421043404A205028580259205A84902092409404960298109A849B049F11A110A420A610A702A902AC10AF41B284C0FDC27AC4F6CAF8CC9ACE26D00ED60FE2
:40388000B002B222B540B610E280EC206801DA4000080108070156025780A380A401B380C090D440D6209B01A401A908AC04AE02EC60EE108801A401B3012D088908CA012A
:4038C000E2011001110112016D16000081160000450F0000000000000000000085150000CD150000191600000000000000000000000000000000000000000000E21F000095
:40390000841E0000E21F0000521F0000E21F0000C01D0000E21F0000E21F0000E21F0000D81D0000E21F00003A1E00003031323334353637383941424344454600000000A2
:40394000030405060708090A0B0C0E0F101112131415161718191B1C1D1E1F2021222325262728292A2B2E2F3031323334350000EEDBC9B9AA9B8E82766B60564D443B3321
:403980002C241D17100A04001201000202000008B40432F201000104800100000902430002010180320904000001020200020524001001042402020524060001052401000B
:4039C000010705810308000A09040100020A000003070582024000000705030240000000040309042C0343007900700072006500730073002000530065006D0069006300A9
:403A00006F006E0064007500630074006F0072003803430044004300200043006F006D006D0075006E00690063006100740069006F006E00200049006E007400650072007B
:403A40006600610063006500260343004400430020004400610074006100200049006E00740065007200660061006300650010035500530042005500410052005400000040
:403A800002030000320005010902A1010901A100050919012903150025019503750181029501750581010501093009311581257F750895028106C0C000000000000081036D
:403AC000080002000100820240000A000100030240000A00020A0000010000009C39000003000000BC3A00000000000000000000000000000000000000000000D43A0000B4
:403B00000100000088390000000000000000000001000000D83A000001000000003B000012034D005300460054003100300030000100000028000000000104000100000065
:403B40000000000000014359555342000000303030303100000000000000000043000000F8B5C046F8BC08BC9E467047150200004D040000F8B5C046F8BC08BC9E46704796
:403B8000ED010000983B0000C80000209800000028010000000000000000000000C2010000000800C201000000080000A12000000000020000000000006CDC0280BB0000BD
:403BC000300000000000C05D0100000000000000000000000000000000000000000000000000000000000000000000005C3B000000000000000000000000000000000000E0
:403C00000000000000000000000000000000000000000000000000000000000000000000000000000000000000000000FC0000200000000000000000000000000000000068
:403C40000000000000000000000000000000000000000000000000000000000000000000000000000000000000000000000000000000000000000000000000000000000044
:403C80000000000000000000000000000000000000000000000000000000000000000000000000000000000000000000000000000000000000000000000000000000000004
:403CC00000000000000000000000000000000000000000000000000000000000000000000000000000000000000000000000000000000000000000000000000000000000C4
:403D00000000000000000000000000000000000000000000000000000000000000000000000000000000000000000000000000000000000000000000000000000000000083
:020000040001F9
:0200000490303A
:02000000B5F356
:0200000490402A
:4000000000000000000000000000000000000000000000000000000000000000000000000000000000000000000000000000000000000000000000000000000000000000C0
:0200000490501A
:0C0000000002101511A000011028C79389
:0200000490600A
:0100000001FE
:00000001FF