:100000000C9434000C9451000C9451000C94510049
:100010000C9451000C9451000C9451000C9451001C
:100020000C9451000C9451000C9451000C9451000C
:100030000C9451000C9451000C948B050C945100BD
:100040000C9451000C9451000C9463050C945100D5
:100050000C9451000C9451000C9451000C945100DC
:100060000C9451000C94510011241FBECFEFD8E026
:10007000DEBFCDBF11E0A0E0B1E0E2EFF4E102C0ED
:1000800005900D92AA36B107D9F722E0AAE6B1E0B1
:1000900001C01D92AB34B207E1F70E949C030C949F
:1000A000770A0C940000CF92DF92EF92FF920F93A9
:1000B0001F93CF93F62F00912302109124022091D9
:1000C000250230912602E0916A0140916B01509126
:1000D0006C0160916D0170916E01401B510B620BC0
:1000E000730BDC01C4E0EC9FA00DB11D1124CD9079
:1000F000DD90ED90FC90C416D506E606F70638F5BF
:10010000E0FF02C0439A01C0439840916A014F5FEB
:100110004F1719F040936A0102C010926A01409192
:100120006A01FC0154E0459FE00DF11D112480811E
:100130009181A281B381080F191F2A1F3B1F0093D1
:100140006B0110936C0120936D0130936E01CF9180
:100150001F910F91FF90EF90DF90CF900895FC01D9
:10016000A081B1815C91428183819481880F991F24
:10017000906E542321E030E011F420E030E0822B37
:10018000932B948383838115904F11F481E08783AF
:100190002C9185819681880F991F906E422321E0D2
:1001A00030E011F020E030E0822B932B96838583A2
:1001B0008115904F11F481E08087089508952A9861
:1001C000811102C080E101C080E97F70782B7EBD83
:1001D0000DB407FEFDCF6EBD0DB407FEFDCF2A9A0C
:1001E000089529989F7090619EBD0DB407FEFDCFC4
:1001F0008EBD0DB407FEFDCF299A08952898289A40
:1002000008950F931F93CF93C82F683110F0685152
:1002100001C060E0613608F060E6EC2FF0E09BEA98
:10022000699F912D1124969596959695492F50E0AA
:10023000DF01AA0FBB1F9F01220F331F220F331FA5
:10024000220F331F8D01020F131F9801240F351F3A
:10025000220F331F20503F4FD9012D913C914F5F0A
:100260005F4FD801A40FB51FAA0FBB1FA050BF4FEF
:100270004D915C91892F880F980F990F990F691BE9
:10028000421B530B649FC001659F900D11246CE0CD
:1002900070E00E940D0A620F731FCB01770FAA0B4B
:1002A000BB0BBB231CF480E090E0DC01BC01CD0162
:1002B0006115B0E17B078105910524F06FEF7FE0C8
:1002C00080E090E0EE0FFF1FEE58FE4F71836083D9
:1002D0008C2F0E94DF000E94FE00CF911F910F9192
:1002E0000895482FCB01E42FF0E0EE0FFF1FEE58EA
:1002F000FE4F608171819C01992314F421583F4F76
:10030000220F232F221F330B620F731F80E090E018
:10031000611520E172078105910524F06FEF7FE000
:1003200080E090E0842F0E94DF000E94FE0008958C
:10033000FC018181803931F48381811106C080E81C
:1003400081830895803909F028C1428150E0FA0183
:100350007897483151050CF418C12FEF260F223041
:1003600008F01BC1CF016CE070E00E940D0A811102
:1003700010C0CF016CE070E00E940D0A9E2F8F2FFD
:10038000FF233CF06093710190936F0180937001A3
:1003900085C080916F0190917001AC014F5F5F4FFC
:1003A0004E175F07D9F4822F90E030917101FC0164
:1003B000EE0FFF1F880F991F880F991F880F991F35
:1003C000E80FF91FE30FF11DEE0FFF1FE050FF4F85
:1003D0008081918101969183808360C0AC014E5FE2
:1003E0005F4F4E175F07D9F4822F90E03091710173
:1003F000FC01EE0FFF1F880F991F880F991F880FB0
:10040000991FE80FF91FE30FF11DEE0FFF1FE050DA
:10041000FF4F808191810A96918380833FC0AC0118
:10042000415051094E175F07D9F4822F90E0309167
:100430007101FC01EE0FFF1F880F991F880F991F94
:10044000880F991FE80FF91FE30FF11DEE0FFF1F33
:10045000E050FF4F808191810197918380831EC07E
:1004600002978E179F07D1F4822F90E0309171018F
:10047000FC01EE0FFF1F880F991F880F991F880F2F
:10048000991FE80FF91FE30FF11DEE0FFF1FE0505A
:10049000FF4F808191810A9791838083422F50E0A2
:1004A0008091710190E0FA01EE0FFF1FBA01660F13
:1004B000771F660F771F660F771FE60FF71FE80F8E
:1004C000F91FEE0FFF1FE050FF4F60817181611532
:1004D0007041BCF0BA01660F771F660F771F660F79
:1004E000771FFA01EE0FFF1FE60FF71FE80FF91F46
:1004F000EE0FFF1FE050FF4F6FEF7FE071836083CF
:100500002AC0BA01660F771F660F771F660F771F25
:10051000FA01EE0FFF1FE60FF71FE80FF91FEE0FAE
:10052000FF1FE050FF4F608171817723A4F4BA016F
:10053000660F771F660F771F660F771FFA01EE0FA2
:10054000FF1FE60FF71FE80FF91FEE0FFF1FE05028
:10055000FF4F11821082BA01660F771F440F551F9B
:10056000440F551F440F551F460F571FFA01E80F40
:10057000F91FEE0FFF1FE050FF4F60817181822F46
:100580000E94DF000E94FE0008952FEF260F223008
:1005900020F460E090E080E0F3CE089548E250E07F
:1005A00064E070E080E091E00E945F0A089548E214
:1005B00050E064E070E080E091E00E94350A089528
:1005C000FC0140961192E817F907E1F70895262FEC
:1005D000269526952695FC01E20FF11D677021E016
:1005E00030E002C0220F331F6A95E2F78081282B8A
:1005F00020830895262F269526952695FC01E20F47
:10060000F11D677021E030E002C0220F331F6A95B0
:10061000E2F720958081282320830895DC011F962E
:100620008C911F97811114C0FD013F969EE022918D
:1006300021110FC09150D8F78FEF089526E080E484
:10064000382F342371F486952150D0F78FEF089519
:100650009FE0A90FB11D97FDBA954C91442374F703
:1006600027E038E09302C0011124822B0895DC01B9
:100670008C91811116C0FD01319691E021912111DB
:1006800011C09F5F9031D1F78FEF089581E022E094
:10069000322F342369F4220F8F5F8830C9F78FEF30
:1006A000089590E0A90FB11D4C9140FFEFCF80E07D
:1006B000990F990F990F892B08951092C5008FE11A
:1006C0008093C400E0ECF0E080818D7F808386E041
:1006D0008093C20080E98093C1000895399A0895FB
:1006E0003A9A3C9A089552985A9A08953D98459A94
:1006F00008953B9A089584B18F6284B985B187606B
:1007000085B9E4E6F0E080818B7F808381E58CBD54
:100710000895E4E6F0E080818F7D808384B5826077
:1007200084BD85B5836085BD8AEF87BDEEE6F0E0C8
:100730008081826080830895CF93DF93CDB7DEB749
:10074000C454D1090FB6F894DEBF0FBECDBF94E0FC
:10075000998382E08A8320E2EAE2F1E0DE011396E7
:1007600001900D922A95E1F79BA38CA380E2EAE425
:10077000F1E0DE01959601900D928A95E1F70E94D5
:100780005D030E947B030E94DE000E946E030E94B4
:1007900064070E9473030E9476030E9479030E94FB
:1007A00089030E9470038CE891E00E94CF0981E8E0
:1007B00091E00E94EB05E0E1F2E086E290E09183B7
:1007C000808380E282838FE39CE90197F1F700C088
:1007D000000080E090E00E94450A853A51F065EA09
:1007E00080E090E00E94690A0E94CE020E94A70960
:1007F00004C00E94D7020E94BC097894359903C0B6
:1008000081E080932202412C512C3201992493944F
:10081000C12CD12C760100E112E06894882481F883
:100820000F2EF8E2AF2EF1E0BF2EF02D89B18695A4
:1008300086958925817090E00E948B078091220225
:100840008823C9F09091220280912202FE01E90FD3
:10085000F11D90E0019782959295907F9827807F77
:1008600098276081E3E0F0E0EC0FFD1F8E0F9F1FE3
:100870000E94530038C080911D028823E1F09091BE
:100880001D0280911D02E2E2F0E0EC0FFD1FE90F76
:10089000F11D90E0019782959295907F9827807F37
:1008A0009827608125E230E02C0F3D1F820F931FB7
:1008B0000E94530018C0411451046104710499F05E
:1008C0008091230290912402A0912502B0912602EA
:1008D00084199509A609B7090697A105B10518F06D
:1008E00043982601370180911E0290911F02A0912A
:1008F0002002B0912102892B8A2B8B2B11F1809140
:10090000230290912402A0912502B09126024091E9
:100910001E0250911F026091200270912102841BDF
:10092000950BA60BB70B893E9340A105B10548F086
:10093000C0921E02D0921F02E0922002F092210289
:100940004198F80187818823C9F117828091230299
:1009500090912402A0912502B09126028093270253
:1009600090932802A0932902B0932A028091220238
:10097000813019F48092220221C0809122028230BB
:1009800041F4109222020E94CE020E946D07439809
:1009900015C080911D02813019F480921D020EC095
:1009A00080911D02823041F410921D020E94A7091D
:1009B0000E946D07439802C00E946D07F801808570
:1009C000882349F01086C0922702D0922802E09234
:1009D0002902F0922A028091270290912802A09188
:1009E0002902B0912A02892B8A2B8B2B19F1809135
:1009F000230290912402A0912502B09126024091F9
:100A00002702509128026091290270912A02841BCA
:100A1000950BA60BB70B893B9B40A105B10550F088
:100A2000C0922702D0922802E0922902F0922A0274
:100A300090921D028CE891E00E94020A8111F6CE8C
:100A40008CE891E00E94ED09682F81E891E00E9416
:100A5000F005882309F4EACE80918701882349F0C4
:100A6000409023025090240260902502709026024C
:100A7000439A80912202882339F06091220287E80C
:100A800091E00E949801D2CE80911D02882339F016
:100A900060911D0287E891E00E941709C7CE8091FE
:100AA0008701882359F090918701F501808198177B
:100AB00029F09091870181819813B8CE87E891E061
:100AC0000E94A506B3CE1F920F920FB60F9211246B
:100AD0002F933F934F935F936F937F938F939F9346
:100AE000AF93BF93EF93FF936091C6008CE891E0C2
:100AF0000E94D809FF91EF91BF91AF919F918F9183
:100B00007F916F915F914F913F912F910F900FBE09
:100B10000F901F9018951F920F920FB60F921124ED
:100B20002F933F934F935F936F937F938F939F93F5
:100B3000AF93BF93EF93FF93809123029091240290
:100B4000A0912502B09126020196A11DB11D8093AE
:100B5000230290932402A0932502B093260280E101
:100B600092E00E94AF00FF91EF91BF91AF919F91F2
:100B70008F917F916F915F914F913F912F910F9046
:100B80000FBE0F901F901895882364F49CE0980F77
:100B9000923050F0982F9B7F993F41F0803F38F47E
:100BA000807F089580E0089580E0089580E00895B2
:100BB000982F9F7E903849F0903A49F0803E49F056
:100BC00081E0903C39F080E0089581E0089581E073
:100BD000089581E00895FC01148215821082089521
:100BE000FF920F931F93CF93DF93EC01062F1C818D
:100BF00011114EC06983F8808F2D0E94C4050E9498
:100C0000D805882331F0002324F0F9820A8381E09B
:100C10008C830981802F0E94C405883F91F058F48D
:100C20008039C9F018F48038B1F01EC0803B99F0CB
:100C3000803E89F019C08A3FB8F08D3F10F08E3F9A
:100C400098F00F831E821886198681E08A871C829D
:100C50001D8211E073C093E09D839C81292F30E0B9
:100C6000223031052CF411C01C821D82188266C00E
:100C70008F830F700F5F0E838A81888719861C828D
:100C80001D8281E08A8711E059C09F5F9C8356C016
:100C90006623C4F46D3F38F46A3F38F4673F69F067
:100CA000683F81F402C06E3F68F00F831E82188691
:100CB000198681E08A8711E041C01C821D8218825A
:100CC00010E03CC0212F30E0FE01E20FF31F018352
:100CD0000D81802F90E001972817390764F1F98082
:100CE0008F2D0E94C405182F8F830E94D80588235A
:100CF00029F08F2D8F708F5F8E8301C01E828A81B5
:100D00008887033011F48B8101C080E089871C82C1
:100D10001D8281E08A87103941F018F4103841F4BF
:100D200004C0103B11F0103E19F4F88211E006C027
:100D3000188211E003C01F5F1C8310E0812FDF9138
:100D4000CF911F910F91FF900895CF93DF93EC0106
:100D50009981903931F48B81811167C080E8898352
:100D60004FC0903E09F478C050F4903909F45DC04A
:100D7000903B09F49DC0903809F0A3C041C09A3F50
:100D800089F118F4983F31F09CC09B3F89F19C3F5A
:100D900099F197C080917701882309F492C08091DE
:100DA00076018F5F80937601813091F4419A809132
:100DB000230290912402A0912502B09126028093F3
:100DC0001E0290931F02A0932002B093210279C0CB
:100DD000833011F4419875C0863008F472C01092C7
:100DE00076016FC081E0809377011092760169C02F
:100DF00081E08093770165C010927701419861C0CE
:100E0000E8E2F1E090818181981304C08A810E9418
:100E10004B0857C09091280181E02881291301C017
:100E200080E06A810E94BD084CC0E8E2F1E0908158
:100E30008181981305C06B818A810E948F0741C010
:100E40009091280181E02881291301C080E04B8125
:100E50006A810E94FC0735C0E8E2F1E0908181815F
:100E6000981315C06B8180E8689FB00111248A81B6
:100E7000682B80E00E94FA086B8180E8689FB001CF
:100E800011248A81682B81E00E94FA081AC090918F
:100E900028016B8180E8689FB00111248A81682B4A
:100EA00081E02881291301C080E00E94FA0809C06E
:100EB000809128019881981304C06B818A810E94D7
:100EC0000609DF91CF9108958BE292E00E94E00243
:100ED0008BE392E00E94E00208958BE292E00E9490
:100EE000E0028BE392E00E94E002EDE7F1E08FEF99
:100EF00080838183EFE7F1E08083818360E080E09D
:100F00000E94010160E081E00E94010180E090E028
:100F10000E94F10008958170809379010895FF92F5
:100F20000F931F93CF93DF93082FF62E682F8BE23A
:100F300092E00E94E7028BE292E00E940E03C82F2B
:100F40008BE292E00E943703D82FCF3F89F0909137
:100F50007F019C1769F0C0937F016C2F81E00E9494
:100F6000010180917901811103C06C2F0E94010160
:100F700010E02C2FCC0F330B0217130701F58091D3
:100F8000790181110FC080917801813041F420E214
:100F9000F29EC00111240E94F1000E94FE00429ABC
:100FA000449A0DC080917801813041F420E2F29E94
:100FB000C00111240E94F1000E94FE00449A809119
:100FC0007901813099F4DF3F51F080917D018D17D7
:100FD00031F0D0937D016D2F80E00E9401018D2FB3
:100FE000DD0F990B0817190709F4429ADF91CF9189
:100FF0001F910F91FF900895CF92DF92EF92FF9291
:101000000F931F93CF93DF93D82ED62FC42EE82EA5
:10101000F12C870102951295107F1027007F102771
:10102000055D1D4FC8010E94E702C8010E940E0322
:10103000C82F8F3F71F0F701E158FE4F908198174C
:1010400041F0F701E158FE4F8083682F8D2D0E94FB
:1010500001016D2F70E02C2FCC0F330B621773073B
:1010600089F4D1100EC080917801813041F420E2E2
:10107000C29EC00111240E94F1000E94FE00429A0B
:1010800001C0449ADF91CF911F910F91FF90EF9093
:10109000DF90CF9008951F93CF93DF93D82F682FC1
:1010A0008BE292E00E94FA028BE292E00E940E0331
:1010B000C82F8BE292E00E943703182F80917901AC
:1010C000813009F5C1131FC02D2F30E080917D01C3
:1010D000082E000C990B2817390711F4449813C0F7
:1010E00080917F01082E000C990B2817390759F4BD
:1010F000449880917801813031F480E090E00E9442
:10110000F1000E94FE00CF3F91F080917F018C178B
:10111000F1F0C0937F016C2F81E00E94010180916A
:101120007901811114C06C2F0E94010110C04498F4
:1011300080917801813031F480E090E00E94F100EC
:101140000E94FE0080917901811101C04298809136
:101150007901813071F41F3F59F080917D01811731
:1011600041F010937D01612F80E00E94010101C0D8
:101170004298DF91CF911F910895FF920F931F9393
:10118000CF93DF93F82E082F10E0E801C295D29597
:10119000D07FDC27C07FDC27C55DDD4FCE010E94FC
:1011A000FA02CE010E940E03682F8F3F71F0F80102
:1011B000E158FE4F80818617B9F0F801E158FE4FE3
:1011C00060838F2D0E9401010FC0F1100CC0429866
:1011D00080917801813041F480E090E00E94F1003C
:1011E0000E94FE0001C04498DF91CF911F910F91A2
:1011F000FF900895705270937C0160937B01609121
:101200007B0170917C010E9471010895813071F41D
:1012100060937A0180917801811108C020E2629F79
:10122000C00111240E94F1000E94FE000895CF9396
:10123000DF93FC019181903931F48381811142C0A7
:1012400080E8818308C09039E9F1903B09F475C0CA
:10125000903809F079C0613009F076C062818BE284
:1012600092E00E94FA028BE292E00E943703CBE206
:101270008C02D12D1124D59587FDD3959D2F990FE3
:10128000D90FDD0FDD0F8D1BD82F8BE292E00E946E
:101290000E038C02912D1124959587FD9395292F8E
:1012A000220F920F990F990F891B982FDF3F19F08A
:1012B000DF5FD09328019F3F09F446C09F5F909362
:1012C000290142C0613099F562818BE292E00E946F
:1012D000E7028BE292E00E943703CBE28C02D12D31
:1012E0001124D59587FDD3959D2F990FD90FDD0F2B
:1012F000DD0F8D1BD82F8BE292E00E940E038C0233
:10130000912D1124959587FD9395292F220F920FEA
:10131000990F990F891B982FDF3F19F0DF5FD0934A
:1013200028019F3F89F09F5F909329010DC0623093
:1013300059F481E08093780107C08281813021F4E3
:10134000623011F410927801DF91CF910895E8E2B4
:10135000F1E06081918120E1929FC00111246F70C2
:10136000682B82E090E00E944D0A6091780183E052
:1013700090E00E944D0A089582E090E00E94450AA4
:10138000982F9F70E8E2F1E0908382958F708183BF
:1013900083E090E00E94450A8093780108959C01C3
:1013A0002C5F3F4FFC0133832283318320830895D8
:1013B000FC01A281B381CD010196938382836C935A
:1013C000CF018C579F4F228133812817390720F096
:1013D00080589109938382830895FC01A081B18193
:1013E0009D012F5F3F4F318320838C91AF014C577C
:1013F0005F4F2417350728F09F012C5F3F4F318343
:1014000020830895FC0181E0428153812081318154
:101410004217530709F080E0089597FB072E16F452
:10142000009407D077FD09D00E94210A07FC05D05F
:101430003EF4909581959F4F0895709561957F4FEB
:101440000895AA1BBB1B51E107C0AA1FBB1FA6170B
:10145000B70710F0A61BB70B881F991F5A95A9F75D
:1014600080959095BC01CD010895DC01CB01FC0174
:10147000F999FECF06C0F2BDE1BDF89A319600B4ED
:101480000D9241505040B8F70895F999FECF92BDA2
:1014900081BDF89A992780B50895262FF999FECF36
:1014A00092BD81BDF89A019700B4021639F01FBAB7
:1014B00020BD0FB6F894FA9AF99A0FBE0895DC0190
:1014C000CB0103C02D910E946A0A41505040D0F7D1
:1014D0000895262FF999FECF1FBA92BD81BD20BD78
:1014E0000FB6F894FA9AF99A0FBE01960895F894F7
:0214F000FFCF2C
:1014F20000000002000400060008000A000C000EB2
:10150200FF0F000000000002000400060008000AAD
:10151200000C000EFF0F0000010128000000C003B4
:101522000000000000000000000028000000C800C9
:10153200000028000000D002000028000000CC01BA
:10154200000000000000000000002800000064000D
:0A1552000000280000004001000026
:107E0000112484B714BE81FFF0D085E080938100F7
:107E100082E08093C00088E18093C10086E0809377
:107E2000C20080E18093C4008EE0C9D0259A86E02C
:107E300020E33CEF91E0309385002093840096BBD3
:107E4000B09BFECF1D9AA8958150A9F7CC24DD24C4
:107E500088248394B5E0AB2EA1E19A2EF3E0BF2EE7
:107E6000A2D0813461F49FD0082FAFD0023811F036
:107E7000013811F484E001C083E08DD089C08234E0
:107E800011F484E103C0853419F485E0A6D080C0E4
:107E9000853579F488D0E82EFF2485D0082F10E0AE
:107EA000102F00270E291F29000F111F8ED06801E7
:107EB0006FC0863521F484E090D080E0DECF843638
:107EC00009F040C070D06FD0082F6DD080E0C81688
:107ED00080E7D80618F4F601B7BEE895C0E0D1E017
:107EE00062D089930C17E1F7F0E0CF16F0E7DF06D8
:107EF00018F0F601B7BEE89568D007B600FCFDCFD4
:107F0000A601A0E0B1E02C9130E011968C91119780
:107F100090E0982F8827822B932B1296FA010C0160
:107F200087BEE89511244E5F5F4FF1E0A038BF0790
:107F300051F7F601A7BEE89507B600FCFDCF97BE46
:107F4000E89526C08437B1F42ED02DD0F82E2BD052
:107F50003CD0F601EF2C8F010F5F1F4F84911BD097
:107F6000EA94F801C1F70894C11CD11CFA94CF0C13
:107F7000D11C0EC0853739F428D08EE10CD085E9AC
:107F80000AD08FE07ACF813511F488E018D01DD067
:107F900080E101D065CF982F8091C00085FFFCCF94
:107FA0009093C60008958091C00087FFFCCF809118
:107FB000C00084FD01C0A8958091C6000895E0E648
:107FC000F0E098E1908380830895EDDF803219F02E
:107FD00088E0F5DFFFCF84E1DECF1F93182FE3DFCA
:107FE0001150E9F7F2DF1F91089580E0E8DFEE27F6
:047FF000FF270994CA
:027FFE00040479
:0400000300007E007B
:00000001FF

